{
	"contracts/Bank.sol": {
		"Bank": {
			"abi": [
				{
					"inputs": [],
					"stateMutability": "payable",
					"type": "constructor"
				},
				{
					"inputs": [
						{
							"internalType": "address",
							"name": "",
							"type": "address"
						}
					],
					"name": "deposits",
					"outputs": [
						{
							"internalType": "uint256",
							"name": "",
							"type": "uint256"
						}
					],
					"stateMutability": "view",
					"type": "function"
				},
				{
					"inputs": [],
					"name": "getOwner",
					"outputs": [
						{
							"internalType": "address",
							"name": "",
							"type": "address"
						}
					],
					"stateMutability": "view",
					"type": "function"
				},
				{
					"inputs": [],
					"name": "getbalance",
					"outputs": [
						{
							"internalType": "uint256",
							"name": "",
							"type": "uint256"
						}
					],
					"stateMutability": "view",
					"type": "function"
				},
				{
					"inputs": [],
					"name": "owner",
					"outputs": [
						{
							"internalType": "address",
							"name": "",
							"type": "address"
						}
					],
					"stateMutability": "view",
					"type": "function"
				},
				{
					"inputs": [
						{
							"internalType": "address payable",
							"name": "x",
							"type": "address"
						},
						{
							"internalType": "uint256",
							"name": "amount",
							"type": "uint256"
						}
					],
					"name": "sendeth",
					"outputs": [],
					"stateMutability": "payable",
					"type": "function"
				},
				{
					"inputs": [
						{
							"internalType": "address payable",
							"name": "x",
							"type": "address"
						}
					],
					"name": "withdraw",
					"outputs": [],
					"stateMutability": "nonpayable",
					"type": "function"
				},
				{
					"stateMutability": "payable",
					"type": "receive"
				}
			],
			"devdoc": {
				"kind": "dev",
				"methods": {},
				"version": 1
			},
			"evm": {
				"assembly": "    /* \"contracts/Bank.sol\":56:860  contract Bank {... */\n  mstore(0x40, 0x80)\n    /* \"contracts/Bank.sol\":206:216  msg.sender */\n  caller\n    /* \"contracts/Bank.sol\":198:203  owner */\n  0x00\n  0x00\n    /* \"contracts/Bank.sol\":198:216  owner = msg.sender */\n  0x0100\n  exp\n  dup2\n  sload\n  dup2\n  0xffffffffffffffffffffffffffffffffffffffff\n  mul\n  not\n  and\n  swap1\n  dup4\n  0xffffffffffffffffffffffffffffffffffffffff\n  and\n  mul\n  or\n  swap1\n  sstore\n  pop\n    /* \"contracts/Bank.sol\":56:860  contract Bank {... */\n  dataSize(sub_0)\n  dup1\n  dataOffset(sub_0)\n  0x00\n  codecopy\n  0x00\n  return\nstop\n\nsub_0: assembly {\n        /* \"contracts/Bank.sol\":56:860  contract Bank {... */\n      mstore(0x40, 0x80)\n      jumpi(tag_1, lt(calldatasize, 0x04))\n      shr(0xe0, calldataload(0x00))\n      dup1\n      0x4d9b3d5d\n      eq\n      tag_3\n      jumpi\n      dup1\n      0x51cff8d9\n      eq\n      tag_4\n      jumpi\n      dup1\n      0x893d20e8\n      eq\n      tag_5\n      jumpi\n      dup1\n      0x8da5cb5b\n      eq\n      tag_6\n      jumpi\n      dup1\n      0xa3210e87\n      eq\n      tag_7\n      jumpi\n      dup1\n      0xfc7e286d\n      eq\n      tag_8\n      jumpi\n      jump(tag_2)\n    tag_1:\n      jumpi(tag_2, calldatasize)\n        /* \"contracts/Bank.sol\":287:296  msg.value */\n      callvalue\n        /* \"contracts/Bank.sol\":264:272  deposits */\n      0x01\n        /* \"contracts/Bank.sol\":264:284  deposits[msg.sender] */\n      0x00\n        /* \"contracts/Bank.sol\":273:283  msg.sender */\n      caller\n        /* \"contracts/Bank.sol\":264:284  deposits[msg.sender] */\n      0xffffffffffffffffffffffffffffffffffffffff\n      and\n      0xffffffffffffffffffffffffffffffffffffffff\n      and\n      dup2\n      mstore\n      0x20\n      add\n      swap1\n      dup2\n      mstore\n      0x20\n      add\n      0x00\n      keccak256\n        /* \"contracts/Bank.sol\":264:296  deposits[msg.sender] = msg.value */\n      dup2\n      swap1\n      sstore\n      stop\n        /* \"contracts/Bank.sol\":56:860  contract Bank {... */\n    tag_2:\n      revert(0x00, 0x00)\n        /* \"contracts/Bank.sol\":556:648  function getbalance() view public returns(uint){... */\n    tag_3:\n      callvalue\n      dup1\n      iszero\n      tag_11\n      jumpi\n      revert(0x00, 0x00)\n    tag_11:\n      pop\n      tag_12\n      tag_13\n      jump\t// in\n    tag_12:\n      mload(0x40)\n      tag_14\n      swap2\n      swap1\n      tag_15\n      jump\t// in\n    tag_14:\n      mload(0x40)\n      dup1\n      swap2\n      sub\n      swap1\n      return\n        /* \"contracts/Bank.sol\":653:858  function withdraw(address payable x) public {... */\n    tag_4:\n      callvalue\n      dup1\n      iszero\n      tag_16\n      jumpi\n      revert(0x00, 0x00)\n    tag_16:\n      pop\n      tag_17\n      0x04\n      dup1\n      calldatasize\n      sub\n      dup2\n      add\n      swap1\n      tag_18\n      swap2\n      swap1\n      tag_19\n      jump\t// in\n    tag_18:\n      tag_20\n      jump\t// in\n    tag_17:\n      stop\n        /* \"contracts/Bank.sol\":308:385  function getOwner() public view returns(address){... */\n    tag_5:\n      callvalue\n      dup1\n      iszero\n      tag_21\n      jumpi\n      revert(0x00, 0x00)\n    tag_21:\n      pop\n      tag_22\n      tag_23\n      jump\t// in\n    tag_22:\n      mload(0x40)\n      tag_24\n      swap2\n      swap1\n      tag_25\n      jump\t// in\n    tag_24:\n      mload(0x40)\n      dup1\n      swap2\n      sub\n      swap1\n      return\n        /* \"contracts/Bank.sol\":76:96  address public owner */\n    tag_6:\n      callvalue\n      dup1\n      iszero\n      tag_26\n      jumpi\n      revert(0x00, 0x00)\n    tag_26:\n      pop\n      tag_27\n      tag_28\n      jump\t// in\n    tag_27:\n      mload(0x40)\n      tag_29\n      swap2\n      swap1\n      tag_25\n      jump\t// in\n    tag_29:\n      mload(0x40)\n      dup1\n      swap2\n      sub\n      swap1\n      return\n        /* \"contracts/Bank.sol\":390:551  function sendeth(address payable x,uint amount) payable public{... */\n    tag_7:\n      tag_30\n      0x04\n      dup1\n      calldatasize\n      sub\n      dup2\n      add\n      swap1\n      tag_31\n      swap2\n      swap1\n      tag_32\n      jump\t// in\n    tag_31:\n      tag_33\n      jump\t// in\n    tag_30:\n      stop\n        /* \"contracts/Bank.sol\":102:142  mapping(address => uint) public deposits */\n    tag_8:\n      callvalue\n      dup1\n      iszero\n      tag_34\n      jumpi\n      revert(0x00, 0x00)\n    tag_34:\n      pop\n      tag_35\n      0x04\n      dup1\n      calldatasize\n      sub\n      dup2\n      add\n      swap1\n      tag_36\n      swap2\n      swap1\n      tag_37\n      jump\t// in\n    tag_36:\n      tag_38\n      jump\t// in\n    tag_35:\n      mload(0x40)\n      tag_39\n      swap2\n      swap1\n      tag_15\n      jump\t// in\n    tag_39:\n      mload(0x40)\n      dup1\n      swap2\n      sub\n      swap1\n      return\n        /* \"contracts/Bank.sol\":556:648  function getbalance() view public returns(uint){... */\n    tag_13:\n        /* \"contracts/Bank.sol\":598:602  uint */\n      0x00\n        /* \"contracts/Bank.sol\":620:641  address(this).balance */\n      selfbalance\n        /* \"contracts/Bank.sol\":613:641  return address(this).balance */\n      swap1\n      pop\n        /* \"contracts/Bank.sol\":556:648  function getbalance() view public returns(uint){... */\n      swap1\n      jump\t// out\n        /* \"contracts/Bank.sol\":653:858  function withdraw(address payable x) public {... */\n    tag_20:\n        /* \"contracts/Bank.sol\":720:730  msg.sender */\n      caller\n        /* \"contracts/Bank.sol\":715:730  x == msg.sender */\n      0xffffffffffffffffffffffffffffffffffffffff\n      and\n        /* \"contracts/Bank.sol\":715:716  x */\n      dup2\n        /* \"contracts/Bank.sol\":715:730  x == msg.sender */\n      0xffffffffffffffffffffffffffffffffffffffff\n      and\n      eq\n        /* \"contracts/Bank.sol\":707:743  require(x == msg.sender,\"not owner\") */\n      tag_42\n      jumpi\n      mload(0x40)\n      0x08c379a000000000000000000000000000000000000000000000000000000000\n      dup2\n      mstore\n      0x04\n      add\n      tag_43\n      swap1\n      tag_44\n      jump\t// in\n    tag_43:\n      mload(0x40)\n      dup1\n      swap2\n      sub\n      swap1\n      revert\n    tag_42:\n        /* \"contracts/Bank.sol\":754:766  bool success */\n      0x00\n        /* \"contracts/Bank.sol\":771:772  x */\n      dup2\n        /* \"contracts/Bank.sol\":771:777  x.call */\n      0xffffffffffffffffffffffffffffffffffffffff\n      and\n        /* \"contracts/Bank.sol\":784:805  address(this).balance */\n      selfbalance\n        /* \"contracts/Bank.sol\":771:810  x.call{value:address(this).balance}(\"\") */\n      mload(0x40)\n      tag_45\n      swap1\n      tag_46\n      jump\t// in\n    tag_45:\n      0x00\n      mload(0x40)\n      dup1\n      dup4\n      sub\n      dup2\n      dup6\n      dup8\n      gas\n      call\n      swap3\n      pop\n      pop\n      pop\n      returndatasize\n      dup1\n      0x00\n      dup2\n      eq\n      tag_49\n      jumpi\n      mload(0x40)\n      swap2\n      pop\n      and(add(returndatasize, 0x3f), not(0x1f))\n      dup3\n      add\n      0x40\n      mstore\n      returndatasize\n      dup3\n      mstore\n      returndatasize\n      0x00\n      0x20\n      dup5\n      add\n      returndatacopy\n      jump(tag_48)\n    tag_49:\n      0x60\n      swap2\n      pop\n    tag_48:\n      pop\n        /* \"contracts/Bank.sol\":753:810  (bool success,) = x.call{value:address(this).balance}(\"\") */\n      pop\n      swap1\n      pop\n        /* \"contracts/Bank.sol\":828:835  success */\n      dup1\n        /* \"contracts/Bank.sol\":820:851  require(success,\"not success1\") */\n      tag_50\n      jumpi\n      mload(0x40)\n      0x08c379a000000000000000000000000000000000000000000000000000000000\n      dup2\n      mstore\n      0x04\n      add\n      tag_51\n      swap1\n      tag_52\n      jump\t// in\n    tag_51:\n      mload(0x40)\n      dup1\n      swap2\n      sub\n      swap1\n      revert\n    tag_50:\n        /* \"contracts/Bank.sol\":697:858  {... */\n      pop\n        /* \"contracts/Bank.sol\":653:858  function withdraw(address payable x) public {... */\n      pop\n      jump\t// out\n        /* \"contracts/Bank.sol\":308:385  function getOwner() public view returns(address){... */\n    tag_23:\n        /* \"contracts/Bank.sol\":348:355  address */\n      0x00\n        /* \"contracts/Bank.sol\":373:378  owner */\n      0x00\n      0x00\n      swap1\n      sload\n      swap1\n      0x0100\n      exp\n      swap1\n      div\n      0xffffffffffffffffffffffffffffffffffffffff\n      and\n        /* \"contracts/Bank.sol\":366:378  return owner */\n      swap1\n      pop\n        /* \"contracts/Bank.sol\":308:385  function getOwner() public view returns(address){... */\n      swap1\n      jump\t// out\n        /* \"contracts/Bank.sol\":76:96  address public owner */\n    tag_28:\n      0x00\n      0x00\n      swap1\n      sload\n      swap1\n      0x0100\n      exp\n      swap1\n      div\n      0xffffffffffffffffffffffffffffffffffffffff\n      and\n      dup2\n      jump\t// out\n        /* \"contracts/Bank.sol\":390:551  function sendeth(address payable x,uint amount) payable public{... */\n    tag_33:\n        /* \"contracts/Bank.sol\":463:475  bool success */\n      0x00\n        /* \"contracts/Bank.sol\":480:481  x */\n      dup3\n        /* \"contracts/Bank.sol\":480:486  x.call */\n      0xffffffffffffffffffffffffffffffffffffffff\n      and\n        /* \"contracts/Bank.sol\":493:499  amount */\n      dup3\n        /* \"contracts/Bank.sol\":480:504  x.call{value:amount}(\"\") */\n      mload(0x40)\n      tag_55\n      swap1\n      tag_46\n      jump\t// in\n    tag_55:\n      0x00\n      mload(0x40)\n      dup1\n      dup4\n      sub\n      dup2\n      dup6\n      dup8\n      gas\n      call\n      swap3\n      pop\n      pop\n      pop\n      returndatasize\n      dup1\n      0x00\n      dup2\n      eq\n      tag_58\n      jumpi\n      mload(0x40)\n      swap2\n      pop\n      and(add(returndatasize, 0x3f), not(0x1f))\n      dup3\n      add\n      0x40\n      mstore\n      returndatasize\n      dup3\n      mstore\n      returndatasize\n      0x00\n      0x20\n      dup5\n      add\n      returndatacopy\n      jump(tag_57)\n    tag_58:\n      0x60\n      swap2\n      pop\n    tag_57:\n      pop\n        /* \"contracts/Bank.sol\":462:504  (bool success,) = x.call{value:amount}(\"\") */\n      pop\n      swap1\n      pop\n        /* \"contracts/Bank.sol\":522:529  success */\n      dup1\n        /* \"contracts/Bank.sol\":514:544  require(success,\"not success\") */\n      tag_59\n      jumpi\n      mload(0x40)\n      0x08c379a000000000000000000000000000000000000000000000000000000000\n      dup2\n      mstore\n      0x04\n      add\n      tag_60\n      swap1\n      tag_61\n      jump\t// in\n    tag_60:\n      mload(0x40)\n      dup1\n      swap2\n      sub\n      swap1\n      revert\n    tag_59:\n        /* \"contracts/Bank.sol\":452:551  {... */\n      pop\n        /* \"contracts/Bank.sol\":390:551  function sendeth(address payable x,uint amount) payable public{... */\n      pop\n      pop\n      jump\t// out\n        /* \"contracts/Bank.sol\":102:142  mapping(address => uint) public deposits */\n    tag_38:\n      mstore(0x20, 0x01)\n      dup1\n      0x00\n      mstore\n      keccak256(0x00, 0x40)\n      0x00\n      swap2\n      pop\n      swap1\n      pop\n      sload\n      dup2\n      jump\t// out\n        /* \"#utility.yul\":7:84   */\n    tag_62:\n        /* \"#utility.yul\":44:51   */\n      0x00\n        /* \"#utility.yul\":73:78   */\n      dup2\n        /* \"#utility.yul\":62:78   */\n      swap1\n      pop\n        /* \"#utility.yul\":7:84   */\n      swap2\n      swap1\n      pop\n      jump\t// out\n        /* \"#utility.yul\":90:208   */\n    tag_63:\n        /* \"#utility.yul\":177:201   */\n      tag_90\n        /* \"#utility.yul\":195:200   */\n      dup2\n        /* \"#utility.yul\":177:201   */\n      tag_62\n      jump\t// in\n    tag_90:\n        /* \"#utility.yul\":172:175   */\n      dup3\n        /* \"#utility.yul\":165:202   */\n      mstore\n        /* \"#utility.yul\":90:208   */\n      pop\n      pop\n      jump\t// out\n        /* \"#utility.yul\":214:436   */\n    tag_15:\n        /* \"#utility.yul\":307:311   */\n      0x00\n        /* \"#utility.yul\":345:347   */\n      0x20\n        /* \"#utility.yul\":334:343   */\n      dup3\n        /* \"#utility.yul\":330:348   */\n      add\n        /* \"#utility.yul\":322:348   */\n      swap1\n      pop\n        /* \"#utility.yul\":358:429   */\n      tag_92\n        /* \"#utility.yul\":426:427   */\n      0x00\n        /* \"#utility.yul\":415:424   */\n      dup4\n        /* \"#utility.yul\":411:428   */\n      add\n        /* \"#utility.yul\":402:408   */\n      dup5\n        /* \"#utility.yul\":358:429   */\n      tag_63\n      jump\t// in\n    tag_92:\n        /* \"#utility.yul\":214:436   */\n      swap3\n      swap2\n      pop\n      pop\n      jump\t// out\n        /* \"#utility.yul\":523:640   */\n    tag_65:\n        /* \"#utility.yul\":632:633   */\n      0x00\n        /* \"#utility.yul\":629:630   */\n      0x00\n        /* \"#utility.yul\":622:634   */\n      revert\n        /* \"#utility.yul\":769:895   */\n    tag_67:\n        /* \"#utility.yul\":806:813   */\n      0x00\n        /* \"#utility.yul\":846:888   */\n      0xffffffffffffffffffffffffffffffffffffffff\n        /* \"#utility.yul\":839:844   */\n      dup3\n        /* \"#utility.yul\":835:889   */\n      and\n        /* \"#utility.yul\":824:889   */\n      swap1\n      pop\n        /* \"#utility.yul\":769:895   */\n      swap2\n      swap1\n      pop\n      jump\t// out\n        /* \"#utility.yul\":901:1005   */\n    tag_68:\n        /* \"#utility.yul\":946:953   */\n      0x00\n        /* \"#utility.yul\":975:999   */\n      tag_98\n        /* \"#utility.yul\":993:998   */\n      dup3\n        /* \"#utility.yul\":975:999   */\n      tag_67\n      jump\t// in\n    tag_98:\n        /* \"#utility.yul\":964:999   */\n      swap1\n      pop\n        /* \"#utility.yul\":901:1005   */\n      swap2\n      swap1\n      pop\n      jump\t// out\n        /* \"#utility.yul\":1011:1149   */\n    tag_69:\n        /* \"#utility.yul\":1092:1124   */\n      tag_100\n        /* \"#utility.yul\":1118:1123   */\n      dup2\n        /* \"#utility.yul\":1092:1124   */\n      tag_68\n      jump\t// in\n    tag_100:\n        /* \"#utility.yul\":1085:1090   */\n      dup2\n        /* \"#utility.yul\":1082:1125   */\n      eq\n        /* \"#utility.yul\":1072:1143   */\n      tag_101\n      jumpi\n        /* \"#utility.yul\":1139:1140   */\n      0x00\n        /* \"#utility.yul\":1136:1137   */\n      0x00\n        /* \"#utility.yul\":1129:1141   */\n      revert\n        /* \"#utility.yul\":1072:1143   */\n    tag_101:\n        /* \"#utility.yul\":1011:1149   */\n      pop\n      jump\t// out\n        /* \"#utility.yul\":1155:1310   */\n    tag_70:\n        /* \"#utility.yul\":1209:1214   */\n      0x00\n        /* \"#utility.yul\":1247:1253   */\n      dup2\n        /* \"#utility.yul\":1234:1254   */\n      calldataload\n        /* \"#utility.yul\":1225:1254   */\n      swap1\n      pop\n        /* \"#utility.yul\":1263:1304   */\n      tag_103\n        /* \"#utility.yul\":1298:1303   */\n      dup2\n        /* \"#utility.yul\":1263:1304   */\n      tag_69\n      jump\t// in\n    tag_103:\n        /* \"#utility.yul\":1155:1310   */\n      swap3\n      swap2\n      pop\n      pop\n      jump\t// out\n        /* \"#utility.yul\":1316:1661   */\n    tag_19:\n        /* \"#utility.yul\":1383:1389   */\n      0x00\n        /* \"#utility.yul\":1432:1434   */\n      0x20\n        /* \"#utility.yul\":1420:1429   */\n      dup3\n        /* \"#utility.yul\":1411:1418   */\n      dup5\n        /* \"#utility.yul\":1407:1430   */\n      sub\n        /* \"#utility.yul\":1403:1435   */\n      slt\n        /* \"#utility.yul\":1400:1519   */\n      iszero\n      tag_105\n      jumpi\n        /* \"#utility.yul\":1438:1517   */\n      tag_106\n      tag_65\n      jump\t// in\n    tag_106:\n        /* \"#utility.yul\":1400:1519   */\n    tag_105:\n        /* \"#utility.yul\":1558:1559   */\n      0x00\n        /* \"#utility.yul\":1583:1644   */\n      tag_107\n        /* \"#utility.yul\":1636:1643   */\n      dup5\n        /* \"#utility.yul\":1627:1633   */\n      dup3\n        /* \"#utility.yul\":1616:1625   */\n      dup6\n        /* \"#utility.yul\":1612:1634   */\n      add\n        /* \"#utility.yul\":1583:1644   */\n      tag_70\n      jump\t// in\n    tag_107:\n        /* \"#utility.yul\":1573:1644   */\n      swap2\n      pop\n        /* \"#utility.yul\":1529:1654   */\n      pop\n        /* \"#utility.yul\":1316:1661   */\n      swap3\n      swap2\n      pop\n      pop\n      jump\t// out\n        /* \"#utility.yul\":1667:1763   */\n    tag_71:\n        /* \"#utility.yul\":1704:1711   */\n      0x00\n        /* \"#utility.yul\":1733:1757   */\n      tag_109\n        /* \"#utility.yul\":1751:1756   */\n      dup3\n        /* \"#utility.yul\":1733:1757   */\n      tag_67\n      jump\t// in\n    tag_109:\n        /* \"#utility.yul\":1722:1757   */\n      swap1\n      pop\n        /* \"#utility.yul\":1667:1763   */\n      swap2\n      swap1\n      pop\n      jump\t// out\n        /* \"#utility.yul\":1769:1887   */\n    tag_72:\n        /* \"#utility.yul\":1856:1880   */\n      tag_111\n        /* \"#utility.yul\":1874:1879   */\n      dup2\n        /* \"#utility.yul\":1856:1880   */\n      tag_71\n      jump\t// in\n    tag_111:\n        /* \"#utility.yul\":1851:1854   */\n      dup3\n        /* \"#utility.yul\":1844:1881   */\n      mstore\n        /* \"#utility.yul\":1769:1887   */\n      pop\n      pop\n      jump\t// out\n        /* \"#utility.yul\":1893:2115   */\n    tag_25:\n        /* \"#utility.yul\":1986:1990   */\n      0x00\n        /* \"#utility.yul\":2024:2026   */\n      0x20\n        /* \"#utility.yul\":2013:2022   */\n      dup3\n        /* \"#utility.yul\":2009:2027   */\n      add\n        /* \"#utility.yul\":2001:2027   */\n      swap1\n      pop\n        /* \"#utility.yul\":2037:2108   */\n      tag_113\n        /* \"#utility.yul\":2105:2106   */\n      0x00\n        /* \"#utility.yul\":2094:2103   */\n      dup4\n        /* \"#utility.yul\":2090:2107   */\n      add\n        /* \"#utility.yul\":2081:2087   */\n      dup5\n        /* \"#utility.yul\":2037:2108   */\n      tag_72\n      jump\t// in\n    tag_113:\n        /* \"#utility.yul\":1893:2115   */\n      swap3\n      swap2\n      pop\n      pop\n      jump\t// out\n        /* \"#utility.yul\":2121:2243   */\n    tag_73:\n        /* \"#utility.yul\":2194:2218   */\n      tag_115\n        /* \"#utility.yul\":2212:2217   */\n      dup2\n        /* \"#utility.yul\":2194:2218   */\n      tag_62\n      jump\t// in\n    tag_115:\n        /* \"#utility.yul\":2187:2192   */\n      dup2\n        /* \"#utility.yul\":2184:2219   */\n      eq\n        /* \"#utility.yul\":2174:2237   */\n      tag_116\n      jumpi\n        /* \"#utility.yul\":2233:2234   */\n      0x00\n        /* \"#utility.yul\":2230:2231   */\n      0x00\n        /* \"#utility.yul\":2223:2235   */\n      revert\n        /* \"#utility.yul\":2174:2237   */\n    tag_116:\n        /* \"#utility.yul\":2121:2243   */\n      pop\n      jump\t// out\n        /* \"#utility.yul\":2249:2388   */\n    tag_74:\n        /* \"#utility.yul\":2295:2300   */\n      0x00\n        /* \"#utility.yul\":2333:2339   */\n      dup2\n        /* \"#utility.yul\":2320:2340   */\n      calldataload\n        /* \"#utility.yul\":2311:2340   */\n      swap1\n      pop\n        /* \"#utility.yul\":2349:2382   */\n      tag_118\n        /* \"#utility.yul\":2376:2381   */\n      dup2\n        /* \"#utility.yul\":2349:2382   */\n      tag_73\n      jump\t// in\n    tag_118:\n        /* \"#utility.yul\":2249:2388   */\n      swap3\n      swap2\n      pop\n      pop\n      jump\t// out\n        /* \"#utility.yul\":2394:2884   */\n    tag_32:\n        /* \"#utility.yul\":2470:2476   */\n      0x00\n        /* \"#utility.yul\":2478:2484   */\n      0x00\n        /* \"#utility.yul\":2527:2529   */\n      0x40\n        /* \"#utility.yul\":2515:2524   */\n      dup4\n        /* \"#utility.yul\":2506:2513   */\n      dup6\n        /* \"#utility.yul\":2502:2525   */\n      sub\n        /* \"#utility.yul\":2498:2530   */\n      slt\n        /* \"#utility.yul\":2495:2614   */\n      iszero\n      tag_120\n      jumpi\n        /* \"#utility.yul\":2533:2612   */\n      tag_121\n      tag_65\n      jump\t// in\n    tag_121:\n        /* \"#utility.yul\":2495:2614   */\n    tag_120:\n        /* \"#utility.yul\":2653:2654   */\n      0x00\n        /* \"#utility.yul\":2678:2739   */\n      tag_122\n        /* \"#utility.yul\":2731:2738   */\n      dup6\n        /* \"#utility.yul\":2722:2728   */\n      dup3\n        /* \"#utility.yul\":2711:2720   */\n      dup7\n        /* \"#utility.yul\":2707:2729   */\n      add\n        /* \"#utility.yul\":2678:2739   */\n      tag_70\n      jump\t// in\n    tag_122:\n        /* \"#utility.yul\":2668:2739   */\n      swap3\n      pop\n        /* \"#utility.yul\":2624:2749   */\n      pop\n        /* \"#utility.yul\":2788:2790   */\n      0x20\n        /* \"#utility.yul\":2814:2867   */\n      tag_123\n        /* \"#utility.yul\":2859:2866   */\n      dup6\n        /* \"#utility.yul\":2850:2856   */\n      dup3\n        /* \"#utility.yul\":2839:2848   */\n      dup7\n        /* \"#utility.yul\":2835:2857   */\n      add\n        /* \"#utility.yul\":2814:2867   */\n      tag_74\n      jump\t// in\n    tag_123:\n        /* \"#utility.yul\":2804:2867   */\n      swap2\n      pop\n        /* \"#utility.yul\":2759:2877   */\n      pop\n        /* \"#utility.yul\":2394:2884   */\n      swap3\n      pop\n      swap3\n      swap1\n      pop\n      jump\t// out\n        /* \"#utility.yul\":2890:3012   */\n    tag_75:\n        /* \"#utility.yul\":2963:2987   */\n      tag_125\n        /* \"#utility.yul\":2981:2986   */\n      dup2\n        /* \"#utility.yul\":2963:2987   */\n      tag_71\n      jump\t// in\n    tag_125:\n        /* \"#utility.yul\":2956:2961   */\n      dup2\n        /* \"#utility.yul\":2953:2988   */\n      eq\n        /* \"#utility.yul\":2943:3006   */\n      tag_126\n      jumpi\n        /* \"#utility.yul\":3002:3003   */\n      0x00\n        /* \"#utility.yul\":2999:3000   */\n      0x00\n        /* \"#utility.yul\":2992:3004   */\n      revert\n        /* \"#utility.yul\":2943:3006   */\n    tag_126:\n        /* \"#utility.yul\":2890:3012   */\n      pop\n      jump\t// out\n        /* \"#utility.yul\":3018:3157   */\n    tag_76:\n        /* \"#utility.yul\":3064:3069   */\n      0x00\n        /* \"#utility.yul\":3102:3108   */\n      dup2\n        /* \"#utility.yul\":3089:3109   */\n      calldataload\n        /* \"#utility.yul\":3080:3109   */\n      swap1\n      pop\n        /* \"#utility.yul\":3118:3151   */\n      tag_128\n        /* \"#utility.yul\":3145:3150   */\n      dup2\n        /* \"#utility.yul\":3118:3151   */\n      tag_75\n      jump\t// in\n    tag_128:\n        /* \"#utility.yul\":3018:3157   */\n      swap3\n      swap2\n      pop\n      pop\n      jump\t// out\n        /* \"#utility.yul\":3163:3492   */\n    tag_37:\n        /* \"#utility.yul\":3222:3228   */\n      0x00\n        /* \"#utility.yul\":3271:3273   */\n      0x20\n        /* \"#utility.yul\":3259:3268   */\n      dup3\n        /* \"#utility.yul\":3250:3257   */\n      dup5\n        /* \"#utility.yul\":3246:3269   */\n      sub\n        /* \"#utility.yul\":3242:3274   */\n      slt\n        /* \"#utility.yul\":3239:3358   */\n      iszero\n      tag_130\n      jumpi\n        /* \"#utility.yul\":3277:3356   */\n      tag_131\n      tag_65\n      jump\t// in\n    tag_131:\n        /* \"#utility.yul\":3239:3358   */\n    tag_130:\n        /* \"#utility.yul\":3397:3398   */\n      0x00\n        /* \"#utility.yul\":3422:3475   */\n      tag_132\n        /* \"#utility.yul\":3467:3474   */\n      dup5\n        /* \"#utility.yul\":3458:3464   */\n      dup3\n        /* \"#utility.yul\":3447:3456   */\n      dup6\n        /* \"#utility.yul\":3443:3465   */\n      add\n        /* \"#utility.yul\":3422:3475   */\n      tag_76\n      jump\t// in\n    tag_132:\n        /* \"#utility.yul\":3412:3475   */\n      swap2\n      pop\n        /* \"#utility.yul\":3368:3485   */\n      pop\n        /* \"#utility.yul\":3163:3492   */\n      swap3\n      swap2\n      pop\n      pop\n      jump\t// out\n        /* \"#utility.yul\":3498:3667   */\n    tag_77:\n        /* \"#utility.yul\":3582:3593   */\n      0x00\n        /* \"#utility.yul\":3616:3622   */\n      dup3\n        /* \"#utility.yul\":3611:3614   */\n      dup3\n        /* \"#utility.yul\":3604:3623   */\n      mstore\n        /* \"#utility.yul\":3656:3660   */\n      0x20\n        /* \"#utility.yul\":3651:3654   */\n      dup3\n        /* \"#utility.yul\":3647:3661   */\n      add\n        /* \"#utility.yul\":3632:3661   */\n      swap1\n      pop\n        /* \"#utility.yul\":3498:3667   */\n      swap3\n      swap2\n      pop\n      pop\n      jump\t// out\n        /* \"#utility.yul\":3673:3832   */\n    tag_78:\n        /* \"#utility.yul\":3813:3824   */\n      0x6e6f74206f776e65720000000000000000000000000000000000000000000000\n        /* \"#utility.yul\":3809:3810   */\n      0x00\n        /* \"#utility.yul\":3801:3807   */\n      dup3\n        /* \"#utility.yul\":3797:3811   */\n      add\n        /* \"#utility.yul\":3790:3825   */\n      mstore\n        /* \"#utility.yul\":3673:3832   */\n      pop\n      jump\t// out\n        /* \"#utility.yul\":3838:4203   */\n    tag_79:\n        /* \"#utility.yul\":3980:3983   */\n      0x00\n        /* \"#utility.yul\":4001:4067   */\n      tag_136\n        /* \"#utility.yul\":4065:4066   */\n      0x09\n        /* \"#utility.yul\":4060:4063   */\n      dup4\n        /* \"#utility.yul\":4001:4067   */\n      tag_77\n      jump\t// in\n    tag_136:\n        /* \"#utility.yul\":3994:4067   */\n      swap2\n      pop\n        /* \"#utility.yul\":4076:4169   */\n      tag_137\n        /* \"#utility.yul\":4165:4168   */\n      dup3\n        /* \"#utility.yul\":4076:4169   */\n      tag_78\n      jump\t// in\n    tag_137:\n        /* \"#utility.yul\":4194:4196   */\n      0x20\n        /* \"#utility.yul\":4189:4192   */\n      dup3\n        /* \"#utility.yul\":4185:4197   */\n      add\n        /* \"#utility.yul\":4178:4197   */\n      swap1\n      pop\n        /* \"#utility.yul\":3838:4203   */\n      swap2\n      swap1\n      pop\n      jump\t// out\n        /* \"#utility.yul\":4209:4628   */\n    tag_44:\n        /* \"#utility.yul\":4375:4379   */\n      0x00\n        /* \"#utility.yul\":4413:4415   */\n      0x20\n        /* \"#utility.yul\":4402:4411   */\n      dup3\n        /* \"#utility.yul\":4398:4416   */\n      add\n        /* \"#utility.yul\":4390:4416   */\n      swap1\n      pop\n        /* \"#utility.yul\":4462:4471   */\n      dup2\n        /* \"#utility.yul\":4456:4460   */\n      dup2\n        /* \"#utility.yul\":4452:4472   */\n      sub\n        /* \"#utility.yul\":4448:4449   */\n      0x00\n        /* \"#utility.yul\":4437:4446   */\n      dup4\n        /* \"#utility.yul\":4433:4450   */\n      add\n        /* \"#utility.yul\":4426:4473   */\n      mstore\n        /* \"#utility.yul\":4490:4621   */\n      tag_139\n        /* \"#utility.yul\":4616:4620   */\n      dup2\n        /* \"#utility.yul\":4490:4621   */\n      tag_79\n      jump\t// in\n    tag_139:\n        /* \"#utility.yul\":4482:4621   */\n      swap1\n      pop\n        /* \"#utility.yul\":4209:4628   */\n      swap2\n      swap1\n      pop\n      jump\t// out\n        /* \"#utility.yul\":4634:4781   */\n    tag_80:\n        /* \"#utility.yul\":4735:4746   */\n      0x00\n        /* \"#utility.yul\":4772:4775   */\n      dup2\n        /* \"#utility.yul\":4757:4775   */\n      swap1\n      pop\n        /* \"#utility.yul\":4634:4781   */\n      swap3\n      swap2\n      pop\n      pop\n      jump\t// out\n        /* \"#utility.yul\":4787:4901   */\n    tag_81:\n      pop\n      jump\t// out\n        /* \"#utility.yul\":4907:5305   */\n    tag_82:\n        /* \"#utility.yul\":5066:5069   */\n      0x00\n        /* \"#utility.yul\":5087:5170   */\n      tag_143\n        /* \"#utility.yul\":5168:5169   */\n      0x00\n        /* \"#utility.yul\":5163:5166   */\n      dup4\n        /* \"#utility.yul\":5087:5170   */\n      tag_80\n      jump\t// in\n    tag_143:\n        /* \"#utility.yul\":5080:5170   */\n      swap2\n      pop\n        /* \"#utility.yul\":5179:5272   */\n      tag_144\n        /* \"#utility.yul\":5268:5271   */\n      dup3\n        /* \"#utility.yul\":5179:5272   */\n      tag_81\n      jump\t// in\n    tag_144:\n        /* \"#utility.yul\":5297:5298   */\n      0x00\n        /* \"#utility.yul\":5292:5295   */\n      dup3\n        /* \"#utility.yul\":5288:5299   */\n      add\n        /* \"#utility.yul\":5281:5299   */\n      swap1\n      pop\n        /* \"#utility.yul\":4907:5305   */\n      swap2\n      swap1\n      pop\n      jump\t// out\n        /* \"#utility.yul\":5311:5690   */\n    tag_46:\n        /* \"#utility.yul\":5495:5498   */\n      0x00\n        /* \"#utility.yul\":5517:5664   */\n      tag_146\n        /* \"#utility.yul\":5660:5663   */\n      dup3\n        /* \"#utility.yul\":5517:5664   */\n      tag_82\n      jump\t// in\n    tag_146:\n        /* \"#utility.yul\":5510:5664   */\n      swap2\n      pop\n        /* \"#utility.yul\":5681:5684   */\n      dup2\n        /* \"#utility.yul\":5674:5684   */\n      swap1\n      pop\n        /* \"#utility.yul\":5311:5690   */\n      swap2\n      swap1\n      pop\n      jump\t// out\n        /* \"#utility.yul\":5696:5858   */\n    tag_83:\n        /* \"#utility.yul\":5836:5850   */\n      0x6e6f742073756363657373310000000000000000000000000000000000000000\n        /* \"#utility.yul\":5832:5833   */\n      0x00\n        /* \"#utility.yul\":5824:5830   */\n      dup3\n        /* \"#utility.yul\":5820:5834   */\n      add\n        /* \"#utility.yul\":5813:5851   */\n      mstore\n        /* \"#utility.yul\":5696:5858   */\n      pop\n      jump\t// out\n        /* \"#utility.yul\":5864:6230   */\n    tag_84:\n        /* \"#utility.yul\":6006:6009   */\n      0x00\n        /* \"#utility.yul\":6027:6094   */\n      tag_149\n        /* \"#utility.yul\":6091:6093   */\n      0x0c\n        /* \"#utility.yul\":6086:6089   */\n      dup4\n        /* \"#utility.yul\":6027:6094   */\n      tag_77\n      jump\t// in\n    tag_149:\n        /* \"#utility.yul\":6020:6094   */\n      swap2\n      pop\n        /* \"#utility.yul\":6103:6196   */\n      tag_150\n        /* \"#utility.yul\":6192:6195   */\n      dup3\n        /* \"#utility.yul\":6103:6196   */\n      tag_83\n      jump\t// in\n    tag_150:\n        /* \"#utility.yul\":6221:6223   */\n      0x20\n        /* \"#utility.yul\":6216:6219   */\n      dup3\n        /* \"#utility.yul\":6212:6224   */\n      add\n        /* \"#utility.yul\":6205:6224   */\n      swap1\n      pop\n        /* \"#utility.yul\":5864:6230   */\n      swap2\n      swap1\n      pop\n      jump\t// out\n        /* \"#utility.yul\":6236:6655   */\n    tag_52:\n        /* \"#utility.yul\":6402:6406   */\n      0x00\n        /* \"#utility.yul\":6440:6442   */\n      0x20\n        /* \"#utility.yul\":6429:6438   */\n      dup3\n        /* \"#utility.yul\":6425:6443   */\n      add\n        /* \"#utility.yul\":6417:6443   */\n      swap1\n      pop\n        /* \"#utility.yul\":6489:6498   */\n      dup2\n        /* \"#utility.yul\":6483:6487   */\n      dup2\n        /* \"#utility.yul\":6479:6499   */\n      sub\n        /* \"#utility.yul\":6475:6476   */\n      0x00\n        /* \"#utility.yul\":6464:6473   */\n      dup4\n        /* \"#utility.yul\":6460:6477   */\n      add\n        /* \"#utility.yul\":6453:6500   */\n      mstore\n        /* \"#utility.yul\":6517:6648   */\n      tag_152\n        /* \"#utility.yul\":6643:6647   */\n      dup2\n        /* \"#utility.yul\":6517:6648   */\n      tag_84\n      jump\t// in\n    tag_152:\n        /* \"#utility.yul\":6509:6648   */\n      swap1\n      pop\n        /* \"#utility.yul\":6236:6655   */\n      swap2\n      swap1\n      pop\n      jump\t// out\n        /* \"#utility.yul\":6661:6822   */\n    tag_85:\n        /* \"#utility.yul\":6801:6814   */\n      0x6e6f742073756363657373000000000000000000000000000000000000000000\n        /* \"#utility.yul\":6797:6798   */\n      0x00\n        /* \"#utility.yul\":6789:6795   */\n      dup3\n        /* \"#utility.yul\":6785:6799   */\n      add\n        /* \"#utility.yul\":6778:6815   */\n      mstore\n        /* \"#utility.yul\":6661:6822   */\n      pop\n      jump\t// out\n        /* \"#utility.yul\":6828:7194   */\n    tag_86:\n        /* \"#utility.yul\":6970:6973   */\n      0x00\n        /* \"#utility.yul\":6991:7058   */\n      tag_155\n        /* \"#utility.yul\":7055:7057   */\n      0x0b\n        /* \"#utility.yul\":7050:7053   */\n      dup4\n        /* \"#utility.yul\":6991:7058   */\n      tag_77\n      jump\t// in\n    tag_155:\n        /* \"#utility.yul\":6984:7058   */\n      swap2\n      pop\n        /* \"#utility.yul\":7067:7160   */\n      tag_156\n        /* \"#utility.yul\":7156:7159   */\n      dup3\n        /* \"#utility.yul\":7067:7160   */\n      tag_85\n      jump\t// in\n    tag_156:\n        /* \"#utility.yul\":7185:7187   */\n      0x20\n        /* \"#utility.yul\":7180:7183   */\n      dup3\n        /* \"#utility.yul\":7176:7188   */\n      add\n        /* \"#utility.yul\":7169:7188   */\n      swap1\n      pop\n        /* \"#utility.yul\":6828:7194   */\n      swap2\n      swap1\n      pop\n      jump\t// out\n        /* \"#utility.yul\":7200:7619   */\n    tag_61:\n        /* \"#utility.yul\":7366:7370   */\n      0x00\n        /* \"#utility.yul\":7404:7406   */\n      0x20\n        /* \"#utility.yul\":7393:7402   */\n      dup3\n        /* \"#utility.yul\":7389:7407   */\n      add\n        /* \"#utility.yul\":7381:7407   */\n      swap1\n      pop\n        /* \"#utility.yul\":7453:7462   */\n      dup2\n        /* \"#utility.yul\":7447:7451   */\n      dup2\n        /* \"#utility.yul\":7443:7463   */\n      sub\n        /* \"#utility.yul\":7439:7440   */\n      0x00\n        /* \"#utility.yul\":7428:7437   */\n      dup4\n        /* \"#utility.yul\":7424:7441   */\n      add\n        /* \"#utility.yul\":7417:7464   */\n      mstore\n        /* \"#utility.yul\":7481:7612   */\n      tag_158\n        /* \"#utility.yul\":7607:7611   */\n      dup2\n        /* \"#utility.yul\":7481:7612   */\n      tag_86\n      jump\t// in\n    tag_158:\n        /* \"#utility.yul\":7473:7612   */\n      swap1\n      pop\n        /* \"#utility.yul\":7200:7619   */\n      swap2\n      swap1\n      pop\n      jump\t// out\n\n    auxdata: 0xa26469706673582212205c811edf8d1fc73a3df61df16b4800a9998beff2d01db3f286dab55400d858fd64736f6c634300081f0033\n}\n",
				"bytecode": {
					"linkReferences": {},
					"object": "6080604052335f5f6101000a81548173ffffffffffffffffffffffffffffffffffffffff021916908373ffffffffffffffffffffffffffffffffffffffff16021790555061073f806100505f395ff3fe608060405260043610610058575f3560e01c80634d9b3d5d146100a457806351cff8d9146100ce578063893d20e8146100f65780638da5cb5b14610120578063a3210e871461014a578063fc7e286d14610166576100a0565b366100a0573460015f3373ffffffffffffffffffffffffffffffffffffffff1673ffffffffffffffffffffffffffffffffffffffff1681526020019081526020015f20819055005b5f5ffd5b3480156100af575f5ffd5b506100b86101a2565b6040516100c591906103e8565b60405180910390f35b3480156100d9575f5ffd5b506100f460048036038101906100ef919061045f565b6101a9565b005b348015610101575f5ffd5b5061010a6102c3565b60405161011791906104aa565b60405180910390f35b34801561012b575f5ffd5b506101346102ea565b60405161014191906104aa565b60405180910390f35b610164600480360381019061015f91906104ed565b61030e565b005b348015610171575f5ffd5b5061018c60048036038101906101879190610555565b6103bb565b60405161019991906103e8565b60405180910390f35b5f47905090565b3373ffffffffffffffffffffffffffffffffffffffff168173ffffffffffffffffffffffffffffffffffffffff1614610217576040517f08c379a000000000000000000000000000000000000000000000000000000000815260040161020e906105da565b60405180910390fd5b5f8173ffffffffffffffffffffffffffffffffffffffff164760405161023c90610625565b5f6040518083038185875af1925050503d805f8114610276576040519150601f19603f3d011682016040523d82523d5f602084013e61027b565b606091505b50509050806102bf576040517f08c379a00000000000000000000000000000000000000000000000000000000081526004016102b690610683565b60405180910390fd5b5050565b5f5f5f9054906101000a900473ffffffffffffffffffffffffffffffffffffffff16905090565b5f5f9054906101000a900473ffffffffffffffffffffffffffffffffffffffff1681565b5f8273ffffffffffffffffffffffffffffffffffffffff168260405161033390610625565b5f6040518083038185875af1925050503d805f811461036d576040519150601f19603f3d011682016040523d82523d5f602084013e610372565b606091505b50509050806103b6576040517f08c379a00000000000000000000000000000000000000000000000000000000081526004016103ad906106eb565b60405180910390fd5b505050565b6001602052805f5260405f205f915090505481565b5f819050919050565b6103e2816103d0565b82525050565b5f6020820190506103fb5f8301846103d9565b92915050565b5f5ffd5b5f73ffffffffffffffffffffffffffffffffffffffff82169050919050565b5f61042e82610405565b9050919050565b61043e81610424565b8114610448575f5ffd5b50565b5f8135905061045981610435565b92915050565b5f6020828403121561047457610473610401565b5b5f6104818482850161044b565b91505092915050565b5f61049482610405565b9050919050565b6104a48161048a565b82525050565b5f6020820190506104bd5f83018461049b565b92915050565b6104cc816103d0565b81146104d6575f5ffd5b50565b5f813590506104e7816104c3565b92915050565b5f5f6040838503121561050357610502610401565b5b5f6105108582860161044b565b9250506020610521858286016104d9565b9150509250929050565b6105348161048a565b811461053e575f5ffd5b50565b5f8135905061054f8161052b565b92915050565b5f6020828403121561056a57610569610401565b5b5f61057784828501610541565b91505092915050565b5f82825260208201905092915050565b7f6e6f74206f776e657200000000000000000000000000000000000000000000005f82015250565b5f6105c4600983610580565b91506105cf82610590565b602082019050919050565b5f6020820190508181035f8301526105f1816105b8565b9050919050565b5f81905092915050565b50565b5f6106105f836105f8565b915061061b82610602565b5f82019050919050565b5f61062f82610605565b9150819050919050565b7f6e6f7420737563636573733100000000000000000000000000000000000000005f82015250565b5f61066d600c83610580565b915061067882610639565b602082019050919050565b5f6020820190508181035f83015261069a81610661565b9050919050565b7f6e6f7420737563636573730000000000000000000000000000000000000000005f82015250565b5f6106d5600b83610580565b91506106e0826106a1565b602082019050919050565b5f6020820190508181035f830152610702816106c9565b905091905056fea26469706673582212205c811edf8d1fc73a3df61df16b4800a9998beff2d01db3f286dab55400d858fd64736f6c634300081f0033",
					"opcodes": "PUSH1 0x80 PUSH1 0x40 MSTORE CALLER PUSH0 PUSH0 PUSH2 0x100 EXP DUP2 SLOAD DUP2 PUSH20 0xFFFFFFFFFFFFFFFFFFFFFFFFFFFFFFFFFFFFFFFF MUL NOT AND SWAP1 DUP4 PUSH20 0xFFFFFFFFFFFFFFFFFFFFFFFFFFFFFFFFFFFFFFFF AND MUL OR SWAP1 SSTORE POP PUSH2 0x73F DUP1 PUSH2 0x50 PUSH0 CODECOPY PUSH0 RETURN INVALID PUSH1 0x80 PUSH1 0x40 MSTORE PUSH1 0x4 CALLDATASIZE LT PUSH2 0x58 JUMPI PUSH0 CALLDATALOAD PUSH1 0xE0 SHR DUP1 PUSH4 0x4D9B3D5D EQ PUSH2 0xA4 JUMPI DUP1 PUSH4 0x51CFF8D9 EQ PUSH2 0xCE JUMPI DUP1 PUSH4 0x893D20E8 EQ PUSH2 0xF6 JUMPI DUP1 PUSH4 0x8DA5CB5B EQ PUSH2 0x120 JUMPI DUP1 PUSH4 0xA3210E87 EQ PUSH2 0x14A JUMPI DUP1 PUSH4 0xFC7E286D EQ PUSH2 0x166 JUMPI PUSH2 0xA0 JUMP JUMPDEST CALLDATASIZE PUSH2 0xA0 JUMPI CALLVALUE PUSH1 0x1 PUSH0 CALLER PUSH20 0xFFFFFFFFFFFFFFFFFFFFFFFFFFFFFFFFFFFFFFFF AND PUSH20 0xFFFFFFFFFFFFFFFFFFFFFFFFFFFFFFFFFFFFFFFF AND DUP2 MSTORE PUSH1 0x20 ADD SWAP1 DUP2 MSTORE PUSH1 0x20 ADD PUSH0 KECCAK256 DUP2 SWAP1 SSTORE STOP JUMPDEST PUSH0 PUSH0 REVERT JUMPDEST CALLVALUE DUP1 ISZERO PUSH2 0xAF JUMPI PUSH0 PUSH0 REVERT JUMPDEST POP PUSH2 0xB8 PUSH2 0x1A2 JUMP JUMPDEST PUSH1 0x40 MLOAD PUSH2 0xC5 SWAP2 SWAP1 PUSH2 0x3E8 JUMP JUMPDEST PUSH1 0x40 MLOAD DUP1 SWAP2 SUB SWAP1 RETURN JUMPDEST CALLVALUE DUP1 ISZERO PUSH2 0xD9 JUMPI PUSH0 PUSH0 REVERT JUMPDEST POP PUSH2 0xF4 PUSH1 0x4 DUP1 CALLDATASIZE SUB DUP2 ADD SWAP1 PUSH2 0xEF SWAP2 SWAP1 PUSH2 0x45F JUMP JUMPDEST PUSH2 0x1A9 JUMP JUMPDEST STOP JUMPDEST CALLVALUE DUP1 ISZERO PUSH2 0x101 JUMPI PUSH0 PUSH0 REVERT JUMPDEST POP PUSH2 0x10A PUSH2 0x2C3 JUMP JUMPDEST PUSH1 0x40 MLOAD PUSH2 0x117 SWAP2 SWAP1 PUSH2 0x4AA JUMP JUMPDEST PUSH1 0x40 MLOAD DUP1 SWAP2 SUB SWAP1 RETURN JUMPDEST CALLVALUE DUP1 ISZERO PUSH2 0x12B JUMPI PUSH0 PUSH0 REVERT JUMPDEST POP PUSH2 0x134 PUSH2 0x2EA JUMP JUMPDEST PUSH1 0x40 MLOAD PUSH2 0x141 SWAP2 SWAP1 PUSH2 0x4AA JUMP JUMPDEST PUSH1 0x40 MLOAD DUP1 SWAP2 SUB SWAP1 RETURN JUMPDEST PUSH2 0x164 PUSH1 0x4 DUP1 CALLDATASIZE SUB DUP2 ADD SWAP1 PUSH2 0x15F SWAP2 SWAP1 PUSH2 0x4ED JUMP JUMPDEST PUSH2 0x30E JUMP JUMPDEST STOP JUMPDEST CALLVALUE DUP1 ISZERO PUSH2 0x171 JUMPI PUSH0 PUSH0 REVERT JUMPDEST POP PUSH2 0x18C PUSH1 0x4 DUP1 CALLDATASIZE SUB DUP2 ADD SWAP1 PUSH2 0x187 SWAP2 SWAP1 PUSH2 0x555 JUMP JUMPDEST PUSH2 0x3BB JUMP JUMPDEST PUSH1 0x40 MLOAD PUSH2 0x199 SWAP2 SWAP1 PUSH2 0x3E8 JUMP JUMPDEST PUSH1 0x40 MLOAD DUP1 SWAP2 SUB SWAP1 RETURN JUMPDEST PUSH0 SELFBALANCE SWAP1 POP SWAP1 JUMP JUMPDEST CALLER PUSH20 0xFFFFFFFFFFFFFFFFFFFFFFFFFFFFFFFFFFFFFFFF AND DUP2 PUSH20 0xFFFFFFFFFFFFFFFFFFFFFFFFFFFFFFFFFFFFFFFF AND EQ PUSH2 0x217 JUMPI PUSH1 0x40 MLOAD PUSH32 0x8C379A000000000000000000000000000000000000000000000000000000000 DUP2 MSTORE PUSH1 0x4 ADD PUSH2 0x20E SWAP1 PUSH2 0x5DA JUMP JUMPDEST PUSH1 0x40 MLOAD DUP1 SWAP2 SUB SWAP1 REVERT JUMPDEST PUSH0 DUP2 PUSH20 0xFFFFFFFFFFFFFFFFFFFFFFFFFFFFFFFFFFFFFFFF AND SELFBALANCE PUSH1 0x40 MLOAD PUSH2 0x23C SWAP1 PUSH2 0x625 JUMP JUMPDEST PUSH0 PUSH1 0x40 MLOAD DUP1 DUP4 SUB DUP2 DUP6 DUP8 GAS CALL SWAP3 POP POP POP RETURNDATASIZE DUP1 PUSH0 DUP2 EQ PUSH2 0x276 JUMPI PUSH1 0x40 MLOAD SWAP2 POP PUSH1 0x1F NOT PUSH1 0x3F RETURNDATASIZE ADD AND DUP3 ADD PUSH1 0x40 MSTORE RETURNDATASIZE DUP3 MSTORE RETURNDATASIZE PUSH0 PUSH1 0x20 DUP5 ADD RETURNDATACOPY PUSH2 0x27B JUMP JUMPDEST PUSH1 0x60 SWAP2 POP JUMPDEST POP POP SWAP1 POP DUP1 PUSH2 0x2BF JUMPI PUSH1 0x40 MLOAD PUSH32 0x8C379A000000000000000000000000000000000000000000000000000000000 DUP2 MSTORE PUSH1 0x4 ADD PUSH2 0x2B6 SWAP1 PUSH2 0x683 JUMP JUMPDEST PUSH1 0x40 MLOAD DUP1 SWAP2 SUB SWAP1 REVERT JUMPDEST POP POP JUMP JUMPDEST PUSH0 PUSH0 PUSH0 SWAP1 SLOAD SWAP1 PUSH2 0x100 EXP SWAP1 DIV PUSH20 0xFFFFFFFFFFFFFFFFFFFFFFFFFFFFFFFFFFFFFFFF AND SWAP1 POP SWAP1 JUMP JUMPDEST PUSH0 PUSH0 SWAP1 SLOAD SWAP1 PUSH2 0x100 EXP SWAP1 DIV PUSH20 0xFFFFFFFFFFFFFFFFFFFFFFFFFFFFFFFFFFFFFFFF AND DUP2 JUMP JUMPDEST PUSH0 DUP3 PUSH20 0xFFFFFFFFFFFFFFFFFFFFFFFFFFFFFFFFFFFFFFFF AND DUP3 PUSH1 0x40 MLOAD PUSH2 0x333 SWAP1 PUSH2 0x625 JUMP JUMPDEST PUSH0 PUSH1 0x40 MLOAD DUP1 DUP4 SUB DUP2 DUP6 DUP8 GAS CALL SWAP3 POP POP POP RETURNDATASIZE DUP1 PUSH0 DUP2 EQ PUSH2 0x36D JUMPI PUSH1 0x40 MLOAD SWAP2 POP PUSH1 0x1F NOT PUSH1 0x3F RETURNDATASIZE ADD AND DUP3 ADD PUSH1 0x40 MSTORE RETURNDATASIZE DUP3 MSTORE RETURNDATASIZE PUSH0 PUSH1 0x20 DUP5 ADD RETURNDATACOPY PUSH2 0x372 JUMP JUMPDEST PUSH1 0x60 SWAP2 POP JUMPDEST POP POP SWAP1 POP DUP1 PUSH2 0x3B6 JUMPI PUSH1 0x40 MLOAD PUSH32 0x8C379A000000000000000000000000000000000000000000000000000000000 DUP2 MSTORE PUSH1 0x4 ADD PUSH2 0x3AD SWAP1 PUSH2 0x6EB JUMP JUMPDEST PUSH1 0x40 MLOAD DUP1 SWAP2 SUB SWAP1 REVERT JUMPDEST POP POP POP JUMP JUMPDEST PUSH1 0x1 PUSH1 0x20 MSTORE DUP1 PUSH0 MSTORE PUSH1 0x40 PUSH0 KECCAK256 PUSH0 SWAP2 POP SWAP1 POP SLOAD DUP2 JUMP JUMPDEST PUSH0 DUP2 SWAP1 POP SWAP2 SWAP1 POP JUMP JUMPDEST PUSH2 0x3E2 DUP2 PUSH2 0x3D0 JUMP JUMPDEST DUP3 MSTORE POP POP JUMP JUMPDEST PUSH0 PUSH1 0x20 DUP3 ADD SWAP1 POP PUSH2 0x3FB PUSH0 DUP4 ADD DUP5 PUSH2 0x3D9 JUMP JUMPDEST SWAP3 SWAP2 POP POP JUMP JUMPDEST PUSH0 PUSH0 REVERT JUMPDEST PUSH0 PUSH20 0xFFFFFFFFFFFFFFFFFFFFFFFFFFFFFFFFFFFFFFFF DUP3 AND SWAP1 POP SWAP2 SWAP1 POP JUMP JUMPDEST PUSH0 PUSH2 0x42E DUP3 PUSH2 0x405 JUMP JUMPDEST SWAP1 POP SWAP2 SWAP1 POP JUMP JUMPDEST PUSH2 0x43E DUP2 PUSH2 0x424 JUMP JUMPDEST DUP2 EQ PUSH2 0x448 JUMPI PUSH0 PUSH0 REVERT JUMPDEST POP JUMP JUMPDEST PUSH0 DUP2 CALLDATALOAD SWAP1 POP PUSH2 0x459 DUP2 PUSH2 0x435 JUMP JUMPDEST SWAP3 SWAP2 POP POP JUMP JUMPDEST PUSH0 PUSH1 0x20 DUP3 DUP5 SUB SLT ISZERO PUSH2 0x474 JUMPI PUSH2 0x473 PUSH2 0x401 JUMP JUMPDEST JUMPDEST PUSH0 PUSH2 0x481 DUP5 DUP3 DUP6 ADD PUSH2 0x44B JUMP JUMPDEST SWAP2 POP POP SWAP3 SWAP2 POP POP JUMP JUMPDEST PUSH0 PUSH2 0x494 DUP3 PUSH2 0x405 JUMP JUMPDEST SWAP1 POP SWAP2 SWAP1 POP JUMP JUMPDEST PUSH2 0x4A4 DUP2 PUSH2 0x48A JUMP JUMPDEST DUP3 MSTORE POP POP JUMP JUMPDEST PUSH0 PUSH1 0x20 DUP3 ADD SWAP1 POP PUSH2 0x4BD PUSH0 DUP4 ADD DUP5 PUSH2 0x49B JUMP JUMPDEST SWAP3 SWAP2 POP POP JUMP JUMPDEST PUSH2 0x4CC DUP2 PUSH2 0x3D0 JUMP JUMPDEST DUP2 EQ PUSH2 0x4D6 JUMPI PUSH0 PUSH0 REVERT JUMPDEST POP JUMP JUMPDEST PUSH0 DUP2 CALLDATALOAD SWAP1 POP PUSH2 0x4E7 DUP2 PUSH2 0x4C3 JUMP JUMPDEST SWAP3 SWAP2 POP POP JUMP JUMPDEST PUSH0 PUSH0 PUSH1 0x40 DUP4 DUP6 SUB SLT ISZERO PUSH2 0x503 JUMPI PUSH2 0x502 PUSH2 0x401 JUMP JUMPDEST JUMPDEST PUSH0 PUSH2 0x510 DUP6 DUP3 DUP7 ADD PUSH2 0x44B JUMP JUMPDEST SWAP3 POP POP PUSH1 0x20 PUSH2 0x521 DUP6 DUP3 DUP7 ADD PUSH2 0x4D9 JUMP JUMPDEST SWAP2 POP POP SWAP3 POP SWAP3 SWAP1 POP JUMP JUMPDEST PUSH2 0x534 DUP2 PUSH2 0x48A JUMP JUMPDEST DUP2 EQ PUSH2 0x53E JUMPI PUSH0 PUSH0 REVERT JUMPDEST POP JUMP JUMPDEST PUSH0 DUP2 CALLDATALOAD SWAP1 POP PUSH2 0x54F DUP2 PUSH2 0x52B JUMP JUMPDEST SWAP3 SWAP2 POP POP JUMP JUMPDEST PUSH0 PUSH1 0x20 DUP3 DUP5 SUB SLT ISZERO PUSH2 0x56A JUMPI PUSH2 0x569 PUSH2 0x401 JUMP JUMPDEST JUMPDEST PUSH0 PUSH2 0x577 DUP5 DUP3 DUP6 ADD PUSH2 0x541 JUMP JUMPDEST SWAP2 POP POP SWAP3 SWAP2 POP POP JUMP JUMPDEST PUSH0 DUP3 DUP3 MSTORE PUSH1 0x20 DUP3 ADD SWAP1 POP SWAP3 SWAP2 POP POP JUMP JUMPDEST PUSH32 0x6E6F74206F776E65720000000000000000000000000000000000000000000000 PUSH0 DUP3 ADD MSTORE POP JUMP JUMPDEST PUSH0 PUSH2 0x5C4 PUSH1 0x9 DUP4 PUSH2 0x580 JUMP JUMPDEST SWAP2 POP PUSH2 0x5CF DUP3 PUSH2 0x590 JUMP JUMPDEST PUSH1 0x20 DUP3 ADD SWAP1 POP SWAP2 SWAP1 POP JUMP JUMPDEST PUSH0 PUSH1 0x20 DUP3 ADD SWAP1 POP DUP2 DUP2 SUB PUSH0 DUP4 ADD MSTORE PUSH2 0x5F1 DUP2 PUSH2 0x5B8 JUMP JUMPDEST SWAP1 POP SWAP2 SWAP1 POP JUMP JUMPDEST PUSH0 DUP2 SWAP1 POP SWAP3 SWAP2 POP POP JUMP JUMPDEST POP JUMP JUMPDEST PUSH0 PUSH2 0x610 PUSH0 DUP4 PUSH2 0x5F8 JUMP JUMPDEST SWAP2 POP PUSH2 0x61B DUP3 PUSH2 0x602 JUMP JUMPDEST PUSH0 DUP3 ADD SWAP1 POP SWAP2 SWAP1 POP JUMP JUMPDEST PUSH0 PUSH2 0x62F DUP3 PUSH2 0x605 JUMP JUMPDEST SWAP2 POP DUP2 SWAP1 POP SWAP2 SWAP1 POP JUMP JUMPDEST PUSH32 0x6E6F742073756363657373310000000000000000000000000000000000000000 PUSH0 DUP3 ADD MSTORE POP JUMP JUMPDEST PUSH0 PUSH2 0x66D PUSH1 0xC DUP4 PUSH2 0x580 JUMP JUMPDEST SWAP2 POP PUSH2 0x678 DUP3 PUSH2 0x639 JUMP JUMPDEST PUSH1 0x20 DUP3 ADD SWAP1 POP SWAP2 SWAP1 POP JUMP JUMPDEST PUSH0 PUSH1 0x20 DUP3 ADD SWAP1 POP DUP2 DUP2 SUB PUSH0 DUP4 ADD MSTORE PUSH2 0x69A DUP2 PUSH2 0x661 JUMP JUMPDEST SWAP1 POP SWAP2 SWAP1 POP JUMP JUMPDEST PUSH32 0x6E6F742073756363657373000000000000000000000000000000000000000000 PUSH0 DUP3 ADD MSTORE POP JUMP JUMPDEST PUSH0 PUSH2 0x6D5 PUSH1 0xB DUP4 PUSH2 0x580 JUMP JUMPDEST SWAP2 POP PUSH2 0x6E0 DUP3 PUSH2 0x6A1 JUMP JUMPDEST PUSH1 0x20 DUP3 ADD SWAP1 POP SWAP2 SWAP1 POP JUMP JUMPDEST PUSH0 PUSH1 0x20 DUP3 ADD SWAP1 POP DUP2 DUP2 SUB PUSH0 DUP4 ADD MSTORE PUSH2 0x702 DUP2 PUSH2 0x6C9 JUMP JUMPDEST SWAP1 POP SWAP2 SWAP1 POP JUMP INVALID LOG2 PUSH5 0x6970667358 0x22 SLT KECCAK256 TLOAD DUP2 CLZ 0xDF DUP14 0x1F 0xC7 GASPRICE RETURNDATASIZE 0xF6 SAR CALL PUSH12 0x4800A9998BEFF2D01DB3F286 0xDA 0xB5 SLOAD STOP 0xD8 PC REVERT PUSH5 0x736F6C6343 STOP ADDMOD 0x1F STOP CALLER "
				},
				"gasEstimates": {
					"creation": {
						"codeDepositCost": "371000",
						"executionCost": "24643",
						"totalCost": "395643"
					},
					"external": {
						"deposits(address)": "2890",
						"getOwner()": "2536",
						"getbalance()": "312",
						"owner()": "2551",
						"sendeth(address,uint256)": "infinite",
						"withdraw(address)": "infinite"
					}
				},
				"methodIdentifiers": {
					"deposits(address)": "fc7e286d",
					"getOwner()": "893d20e8",
					"getbalance()": "4d9b3d5d",
					"owner()": "8da5cb5b",
					"sendeth(address,uint256)": "a3210e87",
					"withdraw(address)": "51cff8d9"
				}
			},
			"storageLayout": {
				"storage": [
					{
						"astId": 3,
						"contract": "contracts/Bank.sol:Bank",
						"label": "owner",
						"offset": 0,
						"slot": "0",
						"type": "t_address"
					},
					{
						"astId": 7,
						"contract": "contracts/Bank.sol:Bank",
						"label": "deposits",
						"offset": 0,
						"slot": "1",
						"type": "t_mapping(t_address,t_uint256)"
					},
					{
						"astId": 9,
						"contract": "contracts/Bank.sol:Bank",
						"label": "balance",
						"offset": 0,
						"slot": "2",
						"type": "t_uint256"
					}
				],
				"types": {
					"t_address": {
						"encoding": "inplace",
						"label": "address",
						"numberOfBytes": "20"
					},
					"t_mapping(t_address,t_uint256)": {
						"encoding": "mapping",
						"key": "t_address",
						"label": "mapping(address => uint256)",
						"numberOfBytes": "32",
						"value": "t_uint256"
					},
					"t_uint256": {
						"encoding": "inplace",
						"label": "uint256",
						"numberOfBytes": "32"
					}
				}
			},
			"userdoc": {
				"kind": "user",
				"methods": {},
				"version": 1
			}
		}
	}
}