{
	"scripts/testCall_Delegate.sol": {
		"CallTest": {
			"abi": [
				{
					"inputs": [
						{
							"internalType": "contract Counter",
							"name": "c",
							"type": "address"
						}
					],
					"name": "callCount",
					"outputs": [],
					"stateMutability": "nonpayable",
					"type": "function"
				},
				{
					"inputs": [],
					"name": "counter",
					"outputs": [
						{
							"internalType": "uint256",
							"name": "",
							"type": "uint256"
						}
					],
					"stateMutability": "view",
					"type": "function"
				},
				{
					"inputs": [],
					"name": "counter2",
					"outputs": [
						{
							"internalType": "uint256",
							"name": "",
							"type": "uint256"
						}
					],
					"stateMutability": "view",
					"type": "function"
				},
				{
					"inputs": [
						{
							"internalType": "address",
							"name": "addr",
							"type": "address"
						}
					],
					"name": "lowCallCount",
					"outputs": [],
					"stateMutability": "nonpayable",
					"type": "function"
				},
				{
					"inputs": [
						{
							"internalType": "address",
							"name": "addr",
							"type": "address"
						}
					],
					"name": "lowDelegatecallCount",
					"outputs": [],
					"stateMutability": "nonpayable",
					"type": "function"
				},
				{
					"inputs": [],
					"name": "sender",
					"outputs": [
						{
							"internalType": "address",
							"name": "",
							"type": "address"
						}
					],
					"stateMutability": "view",
					"type": "function"
				}
			],
			"devdoc": {
				"kind": "dev",
				"methods": {},
				"version": 1
			},
			"evm": {
				"assembly": "    /* \"scripts/testCall_Delegate.sol\":245:930  contract CallTest {... */\n  mstore(0x40, 0x80)\n  callvalue\n  dup1\n  iszero\n  tag_1\n  jumpi\n  revert(0x00, 0x00)\ntag_1:\n  pop\n  dataSize(sub_0)\n  dup1\n  dataOffset(sub_0)\n  0x00\n  codecopy\n  0x00\n  return\nstop\n\nsub_0: assembly {\n        /* \"scripts/testCall_Delegate.sol\":245:930  contract CallTest {... */\n      mstore(0x40, 0x80)\n      callvalue\n      dup1\n      iszero\n      tag_1\n      jumpi\n      revert(0x00, 0x00)\n    tag_1:\n      pop\n      jumpi(tag_2, lt(calldatasize, 0x04))\n      shr(0xe0, calldataload(0x00))\n      dup1\n      0x61bc221a\n      eq\n      tag_3\n      jumpi\n      dup1\n      0x67e404ce\n      eq\n      tag_4\n      jumpi\n      dup1\n      0x759502ce\n      eq\n      tag_5\n      jumpi\n      dup1\n      0x9c018209\n      eq\n      tag_6\n      jumpi\n      dup1\n      0xa17d256a\n      eq\n      tag_7\n      jumpi\n      dup1\n      0xe22f8b68\n      eq\n      tag_8\n      jumpi\n    tag_2:\n      revert(0x00, 0x00)\n        /* \"scripts/testCall_Delegate.sol\":269:288  uint public counter */\n    tag_3:\n      tag_9\n      tag_10\n      jump\t// in\n    tag_9:\n      mload(0x40)\n      tag_11\n      swap2\n      swap1\n      tag_12\n      jump\t// in\n    tag_11:\n      mload(0x40)\n      dup1\n      swap2\n      sub\n      swap1\n      return\n        /* \"scripts/testCall_Delegate.sol\":294:315  address public sender */\n    tag_4:\n      tag_13\n      tag_14\n      jump\t// in\n    tag_13:\n      mload(0x40)\n      tag_15\n      swap2\n      swap1\n      tag_16\n      jump\t// in\n    tag_15:\n      mload(0x40)\n      dup1\n      swap2\n      sub\n      swap1\n      return\n        /* \"scripts/testCall_Delegate.sol\":714:928  function lowCallCount(address addr) public {... */\n    tag_5:\n      tag_17\n      0x04\n      dup1\n      calldatasize\n      sub\n      dup2\n      add\n      swap1\n      tag_18\n      swap2\n      swap1\n      tag_19\n      jump\t// in\n    tag_18:\n      tag_20\n      jump\t// in\n    tag_17:\n      stop\n        /* \"scripts/testCall_Delegate.sol\":347:410  function callCount(Counter c) public {... */\n    tag_6:\n      tag_21\n      0x04\n      dup1\n      calldatasize\n      sub\n      dup2\n      add\n      swap1\n      tag_22\n      swap2\n      swap1\n      tag_23\n      jump\t// in\n    tag_22:\n      tag_24\n      jump\t// in\n    tag_21:\n      stop\n        /* \"scripts/testCall_Delegate.sol\":321:341  uint public counter2 */\n    tag_7:\n      tag_25\n      tag_26\n      jump\t// in\n    tag_25:\n      mload(0x40)\n      tag_27\n      swap2\n      swap1\n      tag_12\n      jump\t// in\n    tag_27:\n      mload(0x40)\n      dup1\n      swap2\n      sub\n      swap1\n      return\n        /* \"scripts/testCall_Delegate.sol\":478:708  function lowDelegatecallCount(address addr) public {... */\n    tag_8:\n      tag_28\n      0x04\n      dup1\n      calldatasize\n      sub\n      dup2\n      add\n      swap1\n      tag_29\n      swap2\n      swap1\n      tag_19\n      jump\t// in\n    tag_29:\n      tag_30\n      jump\t// in\n    tag_28:\n      stop\n        /* \"scripts/testCall_Delegate.sol\":269:288  uint public counter */\n    tag_10:\n      sload(0x00)\n      dup2\n      jump\t// out\n        /* \"scripts/testCall_Delegate.sol\":294:315  address public sender */\n    tag_14:\n      0x01\n      0x00\n      swap1\n      sload\n      swap1\n      0x0100\n      exp\n      swap1\n      div\n      0xffffffffffffffffffffffffffffffffffffffff\n      and\n      dup2\n      jump\t// out\n        /* \"scripts/testCall_Delegate.sol\":714:928  function lowCallCount(address addr) public {... */\n    tag_20:\n        /* \"scripts/testCall_Delegate.sol\":767:790  bytes memory methodData */\n      0x00\n        /* \"scripts/testCall_Delegate.sol\":793:827  abi.encodeWithSignature(\"count()\") */\n      add(0x24, mload(0x40))\n      mload(0x40)\n      0x20\n      dup2\n      dup4\n      sub\n      sub\n      dup2\n      mstore\n      swap1\n      0x40\n      mstore\n      and(not(0xffffffffffffffffffffffffffffffffffffffffffffffffffffffff), 0x06661abd00000000000000000000000000000000000000000000000000000000)\n      0x20\n      dup3\n      add\n      dup1\n      mload\n      0xffffffffffffffffffffffffffffffffffffffffffffffffffffffff\n      dup4\n      dup2\n      dup4\n      and\n      or\n      dup4\n      mstore\n      pop\n      pop\n      pop\n      pop\n        /* \"scripts/testCall_Delegate.sol\":767:827  bytes memory methodData = abi.encodeWithSignature(\"count()\") */\n      swap1\n      pop\n        /* \"scripts/testCall_Delegate.sol\":838:850  bool success */\n      0x00\n        /* \"scripts/testCall_Delegate.sol\":856:860  addr */\n      dup3\n        /* \"scripts/testCall_Delegate.sol\":856:865  addr.call */\n      0xffffffffffffffffffffffffffffffffffffffff\n      and\n        /* \"scripts/testCall_Delegate.sol\":866:876  methodData */\n      dup3\n        /* \"scripts/testCall_Delegate.sol\":856:877  addr.call(methodData) */\n      mload(0x40)\n      tag_32\n      swap2\n      swap1\n      tag_33\n      jump\t// in\n    tag_32:\n      0x00\n      mload(0x40)\n      dup1\n      dup4\n      sub\n      dup2\n      0x00\n      dup7\n      gas\n      call\n      swap2\n      pop\n      pop\n      returndatasize\n      dup1\n      0x00\n      dup2\n      eq\n      tag_36\n      jumpi\n      mload(0x40)\n      swap2\n      pop\n      and(add(returndatasize, 0x3f), not(0x1f))\n      dup3\n      add\n      0x40\n      mstore\n      returndatasize\n      dup3\n      mstore\n      returndatasize\n      0x00\n      0x20\n      dup5\n      add\n      returndatacopy\n      jump(tag_35)\n    tag_36:\n      0x60\n      swap2\n      pop\n    tag_35:\n      pop\n        /* \"scripts/testCall_Delegate.sol\":837:877  (bool success, ) = addr.call(methodData) */\n      pop\n      swap1\n      pop\n        /* \"scripts/testCall_Delegate.sol\":902:907  false */\n      0x00\n        /* \"scripts/testCall_Delegate.sol\":891:907  success == false */\n      iszero\n      iszero\n        /* \"scripts/testCall_Delegate.sol\":891:898  success */\n      dup2\n        /* \"scripts/testCall_Delegate.sol\":891:907  success == false */\n      iszero\n      iszero\n      sub\n        /* \"scripts/testCall_Delegate.sol\":887:921  if (success == false) counter2 = 2 */\n      tag_37\n      jumpi\n        /* \"scripts/testCall_Delegate.sol\":920:921  2 */\n      0x02\n        /* \"scripts/testCall_Delegate.sol\":909:917  counter2 */\n      dup1\n        /* \"scripts/testCall_Delegate.sol\":909:921  counter2 = 2 */\n      dup2\n      swap1\n      sstore\n      pop\n        /* \"scripts/testCall_Delegate.sol\":887:921  if (success == false) counter2 = 2 */\n    tag_37:\n        /* \"scripts/testCall_Delegate.sol\":757:928  {... */\n      pop\n      pop\n        /* \"scripts/testCall_Delegate.sol\":714:928  function lowCallCount(address addr) public {... */\n      pop\n      jump\t// out\n        /* \"scripts/testCall_Delegate.sol\":347:410  function callCount(Counter c) public {... */\n    tag_24:\n        /* \"scripts/testCall_Delegate.sol\":394:395  c */\n      dup1\n        /* \"scripts/testCall_Delegate.sol\":394:401  c.count */\n      0xffffffffffffffffffffffffffffffffffffffff\n      and\n      0x06661abd\n        /* \"scripts/testCall_Delegate.sol\":394:403  c.count() */\n      mload(0x40)\n      dup2\n      0xffffffff\n      and\n      0xe0\n      shl\n      dup2\n      mstore\n      0x04\n      add\n      0x00\n      mload(0x40)\n      dup1\n      dup4\n      sub\n      dup2\n      0x00\n      dup8\n      dup1\n      extcodesize\n      iszero\n      dup1\n      iszero\n      tag_39\n      jumpi\n      revert(0x00, 0x00)\n    tag_39:\n      pop\n      gas\n      call\n      iszero\n      dup1\n      iszero\n      tag_41\n      jumpi\n      returndatacopy(0x00, 0x00, returndatasize)\n      revert(0x00, returndatasize)\n    tag_41:\n      pop\n      pop\n      pop\n      pop\n        /* \"scripts/testCall_Delegate.sol\":347:410  function callCount(Counter c) public {... */\n      pop\n      jump\t// out\n        /* \"scripts/testCall_Delegate.sol\":321:341  uint public counter2 */\n    tag_26:\n      sload(0x02)\n      dup2\n      jump\t// out\n        /* \"scripts/testCall_Delegate.sol\":478:708  function lowDelegatecallCount(address addr) public {... */\n    tag_30:\n        /* \"scripts/testCall_Delegate.sol\":539:562  bytes memory methodData */\n      0x00\n        /* \"scripts/testCall_Delegate.sol\":565:599  abi.encodeWithSignature(\"count()\") */\n      add(0x24, mload(0x40))\n      mload(0x40)\n      0x20\n      dup2\n      dup4\n      sub\n      sub\n      dup2\n      mstore\n      swap1\n      0x40\n      mstore\n      and(not(0xffffffffffffffffffffffffffffffffffffffffffffffffffffffff), 0x06661abd00000000000000000000000000000000000000000000000000000000)\n      0x20\n      dup3\n      add\n      dup1\n      mload\n      0xffffffffffffffffffffffffffffffffffffffffffffffffffffffff\n      dup4\n      dup2\n      dup4\n      and\n      or\n      dup4\n      mstore\n      pop\n      pop\n      pop\n      pop\n        /* \"scripts/testCall_Delegate.sol\":539:599  bytes memory methodData = abi.encodeWithSignature(\"count()\") */\n      swap1\n      pop\n        /* \"scripts/testCall_Delegate.sol\":610:622  bool success */\n      0x00\n        /* \"scripts/testCall_Delegate.sol\":628:632  addr */\n      dup3\n        /* \"scripts/testCall_Delegate.sol\":628:645  addr.delegatecall */\n      0xffffffffffffffffffffffffffffffffffffffff\n      and\n        /* \"scripts/testCall_Delegate.sol\":646:656  methodData */\n      dup3\n        /* \"scripts/testCall_Delegate.sol\":628:657  addr.delegatecall(methodData) */\n      mload(0x40)\n      tag_43\n      swap2\n      swap1\n      tag_33\n      jump\t// in\n    tag_43:\n      0x00\n      mload(0x40)\n      dup1\n      dup4\n      sub\n      dup2\n      dup6\n      gas\n      delegatecall\n      swap2\n      pop\n      pop\n      returndatasize\n      dup1\n      0x00\n      dup2\n      eq\n      tag_46\n      jumpi\n      mload(0x40)\n      swap2\n      pop\n      and(add(returndatasize, 0x3f), not(0x1f))\n      dup3\n      add\n      0x40\n      mstore\n      returndatasize\n      dup3\n      mstore\n      returndatasize\n      0x00\n      0x20\n      dup5\n      add\n      returndatacopy\n      jump(tag_45)\n    tag_46:\n      0x60\n      swap2\n      pop\n    tag_45:\n      pop\n        /* \"scripts/testCall_Delegate.sol\":609:657  (bool success, ) = addr.delegatecall(methodData) */\n      pop\n      swap1\n      pop\n        /* \"scripts/testCall_Delegate.sol\":682:687  false */\n      0x00\n        /* \"scripts/testCall_Delegate.sol\":671:687  success == false */\n      iszero\n      iszero\n        /* \"scripts/testCall_Delegate.sol\":671:678  success */\n      dup2\n        /* \"scripts/testCall_Delegate.sol\":671:687  success == false */\n      iszero\n      iszero\n      sub\n        /* \"scripts/testCall_Delegate.sol\":667:701  if (success == false) counter2 = 2 */\n      tag_47\n      jumpi\n        /* \"scripts/testCall_Delegate.sol\":700:701  2 */\n      0x02\n        /* \"scripts/testCall_Delegate.sol\":689:697  counter2 */\n      dup1\n        /* \"scripts/testCall_Delegate.sol\":689:701  counter2 = 2 */\n      dup2\n      swap1\n      sstore\n      pop\n        /* \"scripts/testCall_Delegate.sol\":667:701  if (success == false) counter2 = 2 */\n    tag_47:\n        /* \"scripts/testCall_Delegate.sol\":529:708  {... */\n      pop\n      pop\n        /* \"scripts/testCall_Delegate.sol\":478:708  function lowDelegatecallCount(address addr) public {... */\n      pop\n      jump\t// out\n        /* \"#utility.yul\":7:84   */\n    tag_48:\n        /* \"#utility.yul\":44:51   */\n      0x00\n        /* \"#utility.yul\":73:78   */\n      dup2\n        /* \"#utility.yul\":62:78   */\n      swap1\n      pop\n        /* \"#utility.yul\":7:84   */\n      swap2\n      swap1\n      pop\n      jump\t// out\n        /* \"#utility.yul\":90:208   */\n    tag_49:\n        /* \"#utility.yul\":177:201   */\n      tag_69\n        /* \"#utility.yul\":195:200   */\n      dup2\n        /* \"#utility.yul\":177:201   */\n      tag_48\n      jump\t// in\n    tag_69:\n        /* \"#utility.yul\":172:175   */\n      dup3\n        /* \"#utility.yul\":165:202   */\n      mstore\n        /* \"#utility.yul\":90:208   */\n      pop\n      pop\n      jump\t// out\n        /* \"#utility.yul\":214:436   */\n    tag_12:\n        /* \"#utility.yul\":307:311   */\n      0x00\n        /* \"#utility.yul\":345:347   */\n      0x20\n        /* \"#utility.yul\":334:343   */\n      dup3\n        /* \"#utility.yul\":330:348   */\n      add\n        /* \"#utility.yul\":322:348   */\n      swap1\n      pop\n        /* \"#utility.yul\":358:429   */\n      tag_71\n        /* \"#utility.yul\":426:427   */\n      0x00\n        /* \"#utility.yul\":415:424   */\n      dup4\n        /* \"#utility.yul\":411:428   */\n      add\n        /* \"#utility.yul\":402:408   */\n      dup5\n        /* \"#utility.yul\":358:429   */\n      tag_49\n      jump\t// in\n    tag_71:\n        /* \"#utility.yul\":214:436   */\n      swap3\n      swap2\n      pop\n      pop\n      jump\t// out\n        /* \"#utility.yul\":442:568   */\n    tag_50:\n        /* \"#utility.yul\":479:486   */\n      0x00\n        /* \"#utility.yul\":519:561   */\n      0xffffffffffffffffffffffffffffffffffffffff\n        /* \"#utility.yul\":512:517   */\n      dup3\n        /* \"#utility.yul\":508:562   */\n      and\n        /* \"#utility.yul\":497:562   */\n      swap1\n      pop\n        /* \"#utility.yul\":442:568   */\n      swap2\n      swap1\n      pop\n      jump\t// out\n        /* \"#utility.yul\":574:670   */\n    tag_51:\n        /* \"#utility.yul\":611:618   */\n      0x00\n        /* \"#utility.yul\":640:664   */\n      tag_74\n        /* \"#utility.yul\":658:663   */\n      dup3\n        /* \"#utility.yul\":640:664   */\n      tag_50\n      jump\t// in\n    tag_74:\n        /* \"#utility.yul\":629:664   */\n      swap1\n      pop\n        /* \"#utility.yul\":574:670   */\n      swap2\n      swap1\n      pop\n      jump\t// out\n        /* \"#utility.yul\":676:794   */\n    tag_52:\n        /* \"#utility.yul\":763:787   */\n      tag_76\n        /* \"#utility.yul\":781:786   */\n      dup2\n        /* \"#utility.yul\":763:787   */\n      tag_51\n      jump\t// in\n    tag_76:\n        /* \"#utility.yul\":758:761   */\n      dup3\n        /* \"#utility.yul\":751:788   */\n      mstore\n        /* \"#utility.yul\":676:794   */\n      pop\n      pop\n      jump\t// out\n        /* \"#utility.yul\":800:1022   */\n    tag_16:\n        /* \"#utility.yul\":893:897   */\n      0x00\n        /* \"#utility.yul\":931:933   */\n      0x20\n        /* \"#utility.yul\":920:929   */\n      dup3\n        /* \"#utility.yul\":916:934   */\n      add\n        /* \"#utility.yul\":908:934   */\n      swap1\n      pop\n        /* \"#utility.yul\":944:1015   */\n      tag_78\n        /* \"#utility.yul\":1012:1013   */\n      0x00\n        /* \"#utility.yul\":1001:1010   */\n      dup4\n        /* \"#utility.yul\":997:1014   */\n      add\n        /* \"#utility.yul\":988:994   */\n      dup5\n        /* \"#utility.yul\":944:1015   */\n      tag_52\n      jump\t// in\n    tag_78:\n        /* \"#utility.yul\":800:1022   */\n      swap3\n      swap2\n      pop\n      pop\n      jump\t// out\n        /* \"#utility.yul\":1109:1226   */\n    tag_54:\n        /* \"#utility.yul\":1218:1219   */\n      0x00\n        /* \"#utility.yul\":1215:1216   */\n      0x00\n        /* \"#utility.yul\":1208:1220   */\n      revert\n        /* \"#utility.yul\":1355:1477   */\n    tag_56:\n        /* \"#utility.yul\":1428:1452   */\n      tag_83\n        /* \"#utility.yul\":1446:1451   */\n      dup2\n        /* \"#utility.yul\":1428:1452   */\n      tag_51\n      jump\t// in\n    tag_83:\n        /* \"#utility.yul\":1421:1426   */\n      dup2\n        /* \"#utility.yul\":1418:1453   */\n      eq\n        /* \"#utility.yul\":1408:1471   */\n      tag_84\n      jumpi\n        /* \"#utility.yul\":1467:1468   */\n      0x00\n        /* \"#utility.yul\":1464:1465   */\n      0x00\n        /* \"#utility.yul\":1457:1469   */\n      revert\n        /* \"#utility.yul\":1408:1471   */\n    tag_84:\n        /* \"#utility.yul\":1355:1477   */\n      pop\n      jump\t// out\n        /* \"#utility.yul\":1483:1622   */\n    tag_57:\n        /* \"#utility.yul\":1529:1534   */\n      0x00\n        /* \"#utility.yul\":1567:1573   */\n      dup2\n        /* \"#utility.yul\":1554:1574   */\n      calldataload\n        /* \"#utility.yul\":1545:1574   */\n      swap1\n      pop\n        /* \"#utility.yul\":1583:1616   */\n      tag_86\n        /* \"#utility.yul\":1610:1615   */\n      dup2\n        /* \"#utility.yul\":1583:1616   */\n      tag_56\n      jump\t// in\n    tag_86:\n        /* \"#utility.yul\":1483:1622   */\n      swap3\n      swap2\n      pop\n      pop\n      jump\t// out\n        /* \"#utility.yul\":1628:1957   */\n    tag_19:\n        /* \"#utility.yul\":1687:1693   */\n      0x00\n        /* \"#utility.yul\":1736:1738   */\n      0x20\n        /* \"#utility.yul\":1724:1733   */\n      dup3\n        /* \"#utility.yul\":1715:1722   */\n      dup5\n        /* \"#utility.yul\":1711:1734   */\n      sub\n        /* \"#utility.yul\":1707:1739   */\n      slt\n        /* \"#utility.yul\":1704:1823   */\n      iszero\n      tag_88\n      jumpi\n        /* \"#utility.yul\":1742:1821   */\n      tag_89\n      tag_54\n      jump\t// in\n    tag_89:\n        /* \"#utility.yul\":1704:1823   */\n    tag_88:\n        /* \"#utility.yul\":1862:1863   */\n      0x00\n        /* \"#utility.yul\":1887:1940   */\n      tag_90\n        /* \"#utility.yul\":1932:1939   */\n      dup5\n        /* \"#utility.yul\":1923:1929   */\n      dup3\n        /* \"#utility.yul\":1912:1921   */\n      dup6\n        /* \"#utility.yul\":1908:1930   */\n      add\n        /* \"#utility.yul\":1887:1940   */\n      tag_57\n      jump\t// in\n    tag_90:\n        /* \"#utility.yul\":1877:1940   */\n      swap2\n      pop\n        /* \"#utility.yul\":1833:1950   */\n      pop\n        /* \"#utility.yul\":1628:1957   */\n      swap3\n      swap2\n      pop\n      pop\n      jump\t// out\n        /* \"#utility.yul\":1963:2067   */\n    tag_58:\n        /* \"#utility.yul\":2008:2015   */\n      0x00\n        /* \"#utility.yul\":2037:2061   */\n      tag_92\n        /* \"#utility.yul\":2055:2060   */\n      dup3\n        /* \"#utility.yul\":2037:2061   */\n      tag_50\n      jump\t// in\n    tag_92:\n        /* \"#utility.yul\":2026:2061   */\n      swap1\n      pop\n        /* \"#utility.yul\":1963:2067   */\n      swap2\n      swap1\n      pop\n      jump\t// out\n        /* \"#utility.yul\":2073:2191   */\n    tag_59:\n        /* \"#utility.yul\":2124:2131   */\n      0x00\n        /* \"#utility.yul\":2153:2185   */\n      tag_94\n        /* \"#utility.yul\":2179:2184   */\n      dup3\n        /* \"#utility.yul\":2153:2185   */\n      tag_58\n      jump\t// in\n    tag_94:\n        /* \"#utility.yul\":2142:2185   */\n      swap1\n      pop\n        /* \"#utility.yul\":2073:2191   */\n      swap2\n      swap1\n      pop\n      jump\t// out\n        /* \"#utility.yul\":2197:2347   */\n    tag_60:\n        /* \"#utility.yul\":2284:2322   */\n      tag_96\n        /* \"#utility.yul\":2316:2321   */\n      dup2\n        /* \"#utility.yul\":2284:2322   */\n      tag_59\n      jump\t// in\n    tag_96:\n        /* \"#utility.yul\":2277:2282   */\n      dup2\n        /* \"#utility.yul\":2274:2323   */\n      eq\n        /* \"#utility.yul\":2264:2341   */\n      tag_97\n      jumpi\n        /* \"#utility.yul\":2337:2338   */\n      0x00\n        /* \"#utility.yul\":2334:2335   */\n      0x00\n        /* \"#utility.yul\":2327:2339   */\n      revert\n        /* \"#utility.yul\":2264:2341   */\n    tag_97:\n        /* \"#utility.yul\":2197:2347   */\n      pop\n      jump\t// out\n        /* \"#utility.yul\":2353:2520   */\n    tag_61:\n        /* \"#utility.yul\":2413:2418   */\n      0x00\n        /* \"#utility.yul\":2451:2457   */\n      dup2\n        /* \"#utility.yul\":2438:2458   */\n      calldataload\n        /* \"#utility.yul\":2429:2458   */\n      swap1\n      pop\n        /* \"#utility.yul\":2467:2514   */\n      tag_99\n        /* \"#utility.yul\":2508:2513   */\n      dup2\n        /* \"#utility.yul\":2467:2514   */\n      tag_60\n      jump\t// in\n    tag_99:\n        /* \"#utility.yul\":2353:2520   */\n      swap3\n      swap2\n      pop\n      pop\n      jump\t// out\n        /* \"#utility.yul\":2526:2883   */\n    tag_23:\n        /* \"#utility.yul\":2599:2605   */\n      0x00\n        /* \"#utility.yul\":2648:2650   */\n      0x20\n        /* \"#utility.yul\":2636:2645   */\n      dup3\n        /* \"#utility.yul\":2627:2634   */\n      dup5\n        /* \"#utility.yul\":2623:2646   */\n      sub\n        /* \"#utility.yul\":2619:2651   */\n      slt\n        /* \"#utility.yul\":2616:2735   */\n      iszero\n      tag_101\n      jumpi\n        /* \"#utility.yul\":2654:2733   */\n      tag_102\n      tag_54\n      jump\t// in\n    tag_102:\n        /* \"#utility.yul\":2616:2735   */\n    tag_101:\n        /* \"#utility.yul\":2774:2775   */\n      0x00\n        /* \"#utility.yul\":2799:2866   */\n      tag_103\n        /* \"#utility.yul\":2858:2865   */\n      dup5\n        /* \"#utility.yul\":2849:2855   */\n      dup3\n        /* \"#utility.yul\":2838:2847   */\n      dup6\n        /* \"#utility.yul\":2834:2856   */\n      add\n        /* \"#utility.yul\":2799:2866   */\n      tag_61\n      jump\t// in\n    tag_103:\n        /* \"#utility.yul\":2789:2866   */\n      swap2\n      pop\n        /* \"#utility.yul\":2745:2876   */\n      pop\n        /* \"#utility.yul\":2526:2883   */\n      swap3\n      swap2\n      pop\n      pop\n      jump\t// out\n        /* \"#utility.yul\":2889:2987   */\n    tag_62:\n        /* \"#utility.yul\":2940:2946   */\n      0x00\n        /* \"#utility.yul\":2974:2979   */\n      dup2\n        /* \"#utility.yul\":2968:2980   */\n      mload\n        /* \"#utility.yul\":2958:2980   */\n      swap1\n      pop\n        /* \"#utility.yul\":2889:2987   */\n      swap2\n      swap1\n      pop\n      jump\t// out\n        /* \"#utility.yul\":2993:3140   */\n    tag_63:\n        /* \"#utility.yul\":3094:3105   */\n      0x00\n        /* \"#utility.yul\":3131:3134   */\n      dup2\n        /* \"#utility.yul\":3116:3134   */\n      swap1\n      pop\n        /* \"#utility.yul\":2993:3140   */\n      swap3\n      swap2\n      pop\n      pop\n      jump\t// out\n        /* \"#utility.yul\":3146:3285   */\n    tag_64:\n        /* \"#utility.yul\":3235:3241   */\n      dup3\n        /* \"#utility.yul\":3230:3233   */\n      dup2\n        /* \"#utility.yul\":3225:3228   */\n      dup4\n        /* \"#utility.yul\":3219:3242   */\n      mcopy\n        /* \"#utility.yul\":3276:3277   */\n      0x00\n        /* \"#utility.yul\":3267:3273   */\n      dup4\n        /* \"#utility.yul\":3262:3265   */\n      dup4\n        /* \"#utility.yul\":3258:3274   */\n      add\n        /* \"#utility.yul\":3251:3278   */\n      mstore\n        /* \"#utility.yul\":3146:3285   */\n      pop\n      pop\n      pop\n      jump\t// out\n        /* \"#utility.yul\":3291:3677   */\n    tag_65:\n        /* \"#utility.yul\":3395:3398   */\n      0x00\n        /* \"#utility.yul\":3423:3461   */\n      tag_108\n        /* \"#utility.yul\":3455:3460   */\n      dup3\n        /* \"#utility.yul\":3423:3461   */\n      tag_62\n      jump\t// in\n    tag_108:\n        /* \"#utility.yul\":3477:3565   */\n      tag_109\n        /* \"#utility.yul\":3558:3564   */\n      dup2\n        /* \"#utility.yul\":3553:3556   */\n      dup6\n        /* \"#utility.yul\":3477:3565   */\n      tag_63\n      jump\t// in\n    tag_109:\n        /* \"#utility.yul\":3470:3565   */\n      swap4\n      pop\n        /* \"#utility.yul\":3574:3639   */\n      tag_110\n        /* \"#utility.yul\":3632:3638   */\n      dup2\n        /* \"#utility.yul\":3627:3630   */\n      dup6\n        /* \"#utility.yul\":3620:3624   */\n      0x20\n        /* \"#utility.yul\":3613:3618   */\n      dup7\n        /* \"#utility.yul\":3609:3625   */\n      add\n        /* \"#utility.yul\":3574:3639   */\n      tag_64\n      jump\t// in\n    tag_110:\n        /* \"#utility.yul\":3664:3670   */\n      dup1\n        /* \"#utility.yul\":3659:3662   */\n      dup5\n        /* \"#utility.yul\":3655:3671   */\n      add\n        /* \"#utility.yul\":3648:3671   */\n      swap2\n      pop\n        /* \"#utility.yul\":3399:3677   */\n      pop\n        /* \"#utility.yul\":3291:3677   */\n      swap3\n      swap2\n      pop\n      pop\n      jump\t// out\n        /* \"#utility.yul\":3683:3954   */\n    tag_33:\n        /* \"#utility.yul\":3813:3816   */\n      0x00\n        /* \"#utility.yul\":3835:3928   */\n      tag_112\n        /* \"#utility.yul\":3924:3927   */\n      dup3\n        /* \"#utility.yul\":3915:3921   */\n      dup5\n        /* \"#utility.yul\":3835:3928   */\n      tag_65\n      jump\t// in\n    tag_112:\n        /* \"#utility.yul\":3828:3928   */\n      swap2\n      pop\n        /* \"#utility.yul\":3945:3948   */\n      dup2\n        /* \"#utility.yul\":3938:3948   */\n      swap1\n      pop\n        /* \"#utility.yul\":3683:3954   */\n      swap3\n      swap2\n      pop\n      pop\n      jump\t// out\n\n    auxdata: 0xa2646970667358221220ad859cd5960993cd7bfa6d712453006423ad1b476e36f32e0df1d6541b6f27a364736f6c634300081f0033\n}\n",
				"bytecode": {
					"linkReferences": {},
					"object": "6080604052348015600e575f5ffd5b506105a28061001c5f395ff3fe608060405234801561000f575f5ffd5b5060043610610060575f3560e01c806361bc221a1461006457806367e404ce14610082578063759502ce146100a05780639c018209146100bc578063a17d256a146100d8578063e22f8b68146100f6575b5f5ffd5b61006c610112565b60405161007991906103c3565b60405180910390f35b61008a610117565b604051610097919061041b565b60405180910390f35b6100ba60048036038101906100b59190610462565b61013c565b005b6100d660048036038101906100d191906104d9565b610242565b005b6100e06102a0565b6040516100ed91906103c3565b60405180910390f35b610110600480360381019061010b9190610462565b6102a6565b005b5f5481565b60015f9054906101000a900473ffffffffffffffffffffffffffffffffffffffff1681565b5f6040516024016040516020818303038152906040527f06661abd000000000000000000000000000000000000000000000000000000007bffffffffffffffffffffffffffffffffffffffffffffffffffffffff19166020820180517bffffffffffffffffffffffffffffffffffffffffffffffffffffffff838183161783525050505090505f8273ffffffffffffffffffffffffffffffffffffffff16826040516101e89190610556565b5f604051808303815f865af19150503d805f8114610221576040519150601f19603f3d011682016040523d82523d5f602084013e610226565b606091505b505090505f15158115150361023d57600280819055505b505050565b8073ffffffffffffffffffffffffffffffffffffffff166306661abd6040518163ffffffff1660e01b81526004015f604051808303815f87803b158015610287575f5ffd5b505af1158015610299573d5f5f3e3d5ffd5b5050505050565b60025481565b5f6040516024016040516020818303038152906040527f06661abd000000000000000000000000000000000000000000000000000000007bffffffffffffffffffffffffffffffffffffffffffffffffffffffff19166020820180517bffffffffffffffffffffffffffffffffffffffffffffffffffffffff838183161783525050505090505f8273ffffffffffffffffffffffffffffffffffffffff16826040516103529190610556565b5f60405180830381855af49150503d805f811461038a576040519150601f19603f3d011682016040523d82523d5f602084013e61038f565b606091505b505090505f1515811515036103a657600280819055505b505050565b5f819050919050565b6103bd816103ab565b82525050565b5f6020820190506103d65f8301846103b4565b92915050565b5f73ffffffffffffffffffffffffffffffffffffffff82169050919050565b5f610405826103dc565b9050919050565b610415816103fb565b82525050565b5f60208201905061042e5f83018461040c565b92915050565b5f5ffd5b610441816103fb565b811461044b575f5ffd5b50565b5f8135905061045c81610438565b92915050565b5f6020828403121561047757610476610434565b5b5f6104848482850161044e565b91505092915050565b5f610497826103dc565b9050919050565b5f6104a88261048d565b9050919050565b6104b88161049e565b81146104c2575f5ffd5b50565b5f813590506104d3816104af565b92915050565b5f602082840312156104ee576104ed610434565b5b5f6104fb848285016104c5565b91505092915050565b5f81519050919050565b5f81905092915050565b8281835e5f83830152505050565b5f61053082610504565b61053a818561050e565b935061054a818560208601610518565b80840191505092915050565b5f6105618284610526565b91508190509291505056fea2646970667358221220ad859cd5960993cd7bfa6d712453006423ad1b476e36f32e0df1d6541b6f27a364736f6c634300081f0033",
					"opcodes": "PUSH1 0x80 PUSH1 0x40 MSTORE CALLVALUE DUP1 ISZERO PUSH1 0xE JUMPI PUSH0 PUSH0 REVERT JUMPDEST POP PUSH2 0x5A2 DUP1 PUSH2 0x1C PUSH0 CODECOPY PUSH0 RETURN INVALID PUSH1 0x80 PUSH1 0x40 MSTORE CALLVALUE DUP1 ISZERO PUSH2 0xF JUMPI PUSH0 PUSH0 REVERT JUMPDEST POP PUSH1 0x4 CALLDATASIZE LT PUSH2 0x60 JUMPI PUSH0 CALLDATALOAD PUSH1 0xE0 SHR DUP1 PUSH4 0x61BC221A EQ PUSH2 0x64 JUMPI DUP1 PUSH4 0x67E404CE EQ PUSH2 0x82 JUMPI DUP1 PUSH4 0x759502CE EQ PUSH2 0xA0 JUMPI DUP1 PUSH4 0x9C018209 EQ PUSH2 0xBC JUMPI DUP1 PUSH4 0xA17D256A EQ PUSH2 0xD8 JUMPI DUP1 PUSH4 0xE22F8B68 EQ PUSH2 0xF6 JUMPI JUMPDEST PUSH0 PUSH0 REVERT JUMPDEST PUSH2 0x6C PUSH2 0x112 JUMP JUMPDEST PUSH1 0x40 MLOAD PUSH2 0x79 SWAP2 SWAP1 PUSH2 0x3C3 JUMP JUMPDEST PUSH1 0x40 MLOAD DUP1 SWAP2 SUB SWAP1 RETURN JUMPDEST PUSH2 0x8A PUSH2 0x117 JUMP JUMPDEST PUSH1 0x40 MLOAD PUSH2 0x97 SWAP2 SWAP1 PUSH2 0x41B JUMP JUMPDEST PUSH1 0x40 MLOAD DUP1 SWAP2 SUB SWAP1 RETURN JUMPDEST PUSH2 0xBA PUSH1 0x4 DUP1 CALLDATASIZE SUB DUP2 ADD SWAP1 PUSH2 0xB5 SWAP2 SWAP1 PUSH2 0x462 JUMP JUMPDEST PUSH2 0x13C JUMP JUMPDEST STOP JUMPDEST PUSH2 0xD6 PUSH1 0x4 DUP1 CALLDATASIZE SUB DUP2 ADD SWAP1 PUSH2 0xD1 SWAP2 SWAP1 PUSH2 0x4D9 JUMP JUMPDEST PUSH2 0x242 JUMP JUMPDEST STOP JUMPDEST PUSH2 0xE0 PUSH2 0x2A0 JUMP JUMPDEST PUSH1 0x40 MLOAD PUSH2 0xED SWAP2 SWAP1 PUSH2 0x3C3 JUMP JUMPDEST PUSH1 0x40 MLOAD DUP1 SWAP2 SUB SWAP1 RETURN JUMPDEST PUSH2 0x110 PUSH1 0x4 DUP1 CALLDATASIZE SUB DUP2 ADD SWAP1 PUSH2 0x10B SWAP2 SWAP1 PUSH2 0x462 JUMP JUMPDEST PUSH2 0x2A6 JUMP JUMPDEST STOP JUMPDEST PUSH0 SLOAD DUP2 JUMP JUMPDEST PUSH1 0x1 PUSH0 SWAP1 SLOAD SWAP1 PUSH2 0x100 EXP SWAP1 DIV PUSH20 0xFFFFFFFFFFFFFFFFFFFFFFFFFFFFFFFFFFFFFFFF AND DUP2 JUMP JUMPDEST PUSH0 PUSH1 0x40 MLOAD PUSH1 0x24 ADD PUSH1 0x40 MLOAD PUSH1 0x20 DUP2 DUP4 SUB SUB DUP2 MSTORE SWAP1 PUSH1 0x40 MSTORE PUSH32 0x6661ABD00000000000000000000000000000000000000000000000000000000 PUSH28 0xFFFFFFFFFFFFFFFFFFFFFFFFFFFFFFFFFFFFFFFFFFFFFFFFFFFFFFFF NOT AND PUSH1 0x20 DUP3 ADD DUP1 MLOAD PUSH28 0xFFFFFFFFFFFFFFFFFFFFFFFFFFFFFFFFFFFFFFFFFFFFFFFFFFFFFFFF DUP4 DUP2 DUP4 AND OR DUP4 MSTORE POP POP POP POP SWAP1 POP PUSH0 DUP3 PUSH20 0xFFFFFFFFFFFFFFFFFFFFFFFFFFFFFFFFFFFFFFFF AND DUP3 PUSH1 0x40 MLOAD PUSH2 0x1E8 SWAP2 SWAP1 PUSH2 0x556 JUMP JUMPDEST PUSH0 PUSH1 0x40 MLOAD DUP1 DUP4 SUB DUP2 PUSH0 DUP7 GAS CALL SWAP2 POP POP RETURNDATASIZE DUP1 PUSH0 DUP2 EQ PUSH2 0x221 JUMPI PUSH1 0x40 MLOAD SWAP2 POP PUSH1 0x1F NOT PUSH1 0x3F RETURNDATASIZE ADD AND DUP3 ADD PUSH1 0x40 MSTORE RETURNDATASIZE DUP3 MSTORE RETURNDATASIZE PUSH0 PUSH1 0x20 DUP5 ADD RETURNDATACOPY PUSH2 0x226 JUMP JUMPDEST PUSH1 0x60 SWAP2 POP JUMPDEST POP POP SWAP1 POP PUSH0 ISZERO ISZERO DUP2 ISZERO ISZERO SUB PUSH2 0x23D JUMPI PUSH1 0x2 DUP1 DUP2 SWAP1 SSTORE POP JUMPDEST POP POP POP JUMP JUMPDEST DUP1 PUSH20 0xFFFFFFFFFFFFFFFFFFFFFFFFFFFFFFFFFFFFFFFF AND PUSH4 0x6661ABD PUSH1 0x40 MLOAD DUP2 PUSH4 0xFFFFFFFF AND PUSH1 0xE0 SHL DUP2 MSTORE PUSH1 0x4 ADD PUSH0 PUSH1 0x40 MLOAD DUP1 DUP4 SUB DUP2 PUSH0 DUP8 DUP1 EXTCODESIZE ISZERO DUP1 ISZERO PUSH2 0x287 JUMPI PUSH0 PUSH0 REVERT JUMPDEST POP GAS CALL ISZERO DUP1 ISZERO PUSH2 0x299 JUMPI RETURNDATASIZE PUSH0 PUSH0 RETURNDATACOPY RETURNDATASIZE PUSH0 REVERT JUMPDEST POP POP POP POP POP JUMP JUMPDEST PUSH1 0x2 SLOAD DUP2 JUMP JUMPDEST PUSH0 PUSH1 0x40 MLOAD PUSH1 0x24 ADD PUSH1 0x40 MLOAD PUSH1 0x20 DUP2 DUP4 SUB SUB DUP2 MSTORE SWAP1 PUSH1 0x40 MSTORE PUSH32 0x6661ABD00000000000000000000000000000000000000000000000000000000 PUSH28 0xFFFFFFFFFFFFFFFFFFFFFFFFFFFFFFFFFFFFFFFFFFFFFFFFFFFFFFFF NOT AND PUSH1 0x20 DUP3 ADD DUP1 MLOAD PUSH28 0xFFFFFFFFFFFFFFFFFFFFFFFFFFFFFFFFFFFFFFFFFFFFFFFFFFFFFFFF DUP4 DUP2 DUP4 AND OR DUP4 MSTORE POP POP POP POP SWAP1 POP PUSH0 DUP3 PUSH20 0xFFFFFFFFFFFFFFFFFFFFFFFFFFFFFFFFFFFFFFFF AND DUP3 PUSH1 0x40 MLOAD PUSH2 0x352 SWAP2 SWAP1 PUSH2 0x556 JUMP JUMPDEST PUSH0 PUSH1 0x40 MLOAD DUP1 DUP4 SUB DUP2 DUP6 GAS DELEGATECALL SWAP2 POP POP RETURNDATASIZE DUP1 PUSH0 DUP2 EQ PUSH2 0x38A JUMPI PUSH1 0x40 MLOAD SWAP2 POP PUSH1 0x1F NOT PUSH1 0x3F RETURNDATASIZE ADD AND DUP3 ADD PUSH1 0x40 MSTORE RETURNDATASIZE DUP3 MSTORE RETURNDATASIZE PUSH0 PUSH1 0x20 DUP5 ADD RETURNDATACOPY PUSH2 0x38F JUMP JUMPDEST PUSH1 0x60 SWAP2 POP JUMPDEST POP POP SWAP1 POP PUSH0 ISZERO ISZERO DUP2 ISZERO ISZERO SUB PUSH2 0x3A6 JUMPI PUSH1 0x2 DUP1 DUP2 SWAP1 SSTORE POP JUMPDEST POP POP POP JUMP JUMPDEST PUSH0 DUP2 SWAP1 POP SWAP2 SWAP1 POP JUMP JUMPDEST PUSH2 0x3BD DUP2 PUSH2 0x3AB JUMP JUMPDEST DUP3 MSTORE POP POP JUMP JUMPDEST PUSH0 PUSH1 0x20 DUP3 ADD SWAP1 POP PUSH2 0x3D6 PUSH0 DUP4 ADD DUP5 PUSH2 0x3B4 JUMP JUMPDEST SWAP3 SWAP2 POP POP JUMP JUMPDEST PUSH0 PUSH20 0xFFFFFFFFFFFFFFFFFFFFFFFFFFFFFFFFFFFFFFFF DUP3 AND SWAP1 POP SWAP2 SWAP1 POP JUMP JUMPDEST PUSH0 PUSH2 0x405 DUP3 PUSH2 0x3DC JUMP JUMPDEST SWAP1 POP SWAP2 SWAP1 POP JUMP JUMPDEST PUSH2 0x415 DUP2 PUSH2 0x3FB JUMP JUMPDEST DUP3 MSTORE POP POP JUMP JUMPDEST PUSH0 PUSH1 0x20 DUP3 ADD SWAP1 POP PUSH2 0x42E PUSH0 DUP4 ADD DUP5 PUSH2 0x40C JUMP JUMPDEST SWAP3 SWAP2 POP POP JUMP JUMPDEST PUSH0 PUSH0 REVERT JUMPDEST PUSH2 0x441 DUP2 PUSH2 0x3FB JUMP JUMPDEST DUP2 EQ PUSH2 0x44B JUMPI PUSH0 PUSH0 REVERT JUMPDEST POP JUMP JUMPDEST PUSH0 DUP2 CALLDATALOAD SWAP1 POP PUSH2 0x45C DUP2 PUSH2 0x438 JUMP JUMPDEST SWAP3 SWAP2 POP POP JUMP JUMPDEST PUSH0 PUSH1 0x20 DUP3 DUP5 SUB SLT ISZERO PUSH2 0x477 JUMPI PUSH2 0x476 PUSH2 0x434 JUMP JUMPDEST JUMPDEST PUSH0 PUSH2 0x484 DUP5 DUP3 DUP6 ADD PUSH2 0x44E JUMP JUMPDEST SWAP2 POP POP SWAP3 SWAP2 POP POP JUMP JUMPDEST PUSH0 PUSH2 0x497 DUP3 PUSH2 0x3DC JUMP JUMPDEST SWAP1 POP SWAP2 SWAP1 POP JUMP JUMPDEST PUSH0 PUSH2 0x4A8 DUP3 PUSH2 0x48D JUMP JUMPDEST SWAP1 POP SWAP2 SWAP1 POP JUMP JUMPDEST PUSH2 0x4B8 DUP2 PUSH2 0x49E JUMP JUMPDEST DUP2 EQ PUSH2 0x4C2 JUMPI PUSH0 PUSH0 REVERT JUMPDEST POP JUMP JUMPDEST PUSH0 DUP2 CALLDATALOAD SWAP1 POP PUSH2 0x4D3 DUP2 PUSH2 0x4AF JUMP JUMPDEST SWAP3 SWAP2 POP POP JUMP JUMPDEST PUSH0 PUSH1 0x20 DUP3 DUP5 SUB SLT ISZERO PUSH2 0x4EE JUMPI PUSH2 0x4ED PUSH2 0x434 JUMP JUMPDEST JUMPDEST PUSH0 PUSH2 0x4FB DUP5 DUP3 DUP6 ADD PUSH2 0x4C5 JUMP JUMPDEST SWAP2 POP POP SWAP3 SWAP2 POP POP JUMP JUMPDEST PUSH0 DUP2 MLOAD SWAP1 POP SWAP2 SWAP1 POP JUMP JUMPDEST PUSH0 DUP2 SWAP1 POP SWAP3 SWAP2 POP POP JUMP JUMPDEST DUP3 DUP2 DUP4 MCOPY PUSH0 DUP4 DUP4 ADD MSTORE POP POP POP JUMP JUMPDEST PUSH0 PUSH2 0x530 DUP3 PUSH2 0x504 JUMP JUMPDEST PUSH2 0x53A DUP2 DUP6 PUSH2 0x50E JUMP JUMPDEST SWAP4 POP PUSH2 0x54A DUP2 DUP6 PUSH1 0x20 DUP7 ADD PUSH2 0x518 JUMP JUMPDEST DUP1 DUP5 ADD SWAP2 POP POP SWAP3 SWAP2 POP POP JUMP JUMPDEST PUSH0 PUSH2 0x561 DUP3 DUP5 PUSH2 0x526 JUMP JUMPDEST SWAP2 POP DUP2 SWAP1 POP SWAP3 SWAP2 POP POP JUMP INVALID LOG2 PUSH5 0x6970667358 0x22 SLT KECCAK256 0xAD DUP6 SWAP13 0xD5 SWAP7 MULMOD SWAP4 0xCD PUSH28 0xFA6D712453006423AD1B476E36F32E0DF1D6541B6F27A364736F6C63 NUMBER STOP ADDMOD 0x1F STOP CALLER "
				},
				"gasEstimates": {
					"creation": {
						"codeDepositCost": "288400",
						"executionCost": "329",
						"totalCost": "288729"
					},
					"external": {
						"callCount(address)": "infinite",
						"counter()": "2402",
						"counter2()": "2491",
						"lowCallCount(address)": "infinite",
						"lowDelegatecallCount(address)": "infinite",
						"sender()": "2508"
					}
				},
				"methodIdentifiers": {
					"callCount(address)": "9c018209",
					"counter()": "61bc221a",
					"counter2()": "a17d256a",
					"lowCallCount(address)": "759502ce",
					"lowDelegatecallCount(address)": "e22f8b68",
					"sender()": "67e404ce"
				}
			},
			"storageLayout": {
				"storage": [
					{
						"astId": 29,
						"contract": "scripts/testCall_Delegate.sol:CallTest",
						"label": "counter",
						"offset": 0,
						"slot": "0",
						"type": "t_uint256"
					},
					{
						"astId": 31,
						"contract": "scripts/testCall_Delegate.sol:CallTest",
						"label": "sender",
						"offset": 0,
						"slot": "1",
						"type": "t_address"
					},
					{
						"astId": 33,
						"contract": "scripts/testCall_Delegate.sol:CallTest",
						"label": "counter2",
						"offset": 0,
						"slot": "2",
						"type": "t_uint256"
					}
				],
				"types": {
					"t_address": {
						"encoding": "inplace",
						"label": "address",
						"numberOfBytes": "20"
					},
					"t_uint256": {
						"encoding": "inplace",
						"label": "uint256",
						"numberOfBytes": "32"
					}
				}
			},
			"userdoc": {
				"kind": "user",
				"methods": {},
				"version": 1
			}
		}
	}
}